:04000000FEEF3FF0E0
:1006000000563A2025312E326620560D0A00696EBA
:0706100066006E616E000040
:100618000001816B56C084F057C085F058C086F041
:1006280059C087F087BF1DEF03F01BEF03F031EFD0
:1006380003F0010E816F84C001F085C002F086C00E
:1006480003F087C004F064EC15F001C084F002C028
:1006580085F003C086F004C087F0000E0001836FA8
:10066800000E826FDBC071F0DCC072F08151D8B42B
:1006780040EF03F042EF03F056EF03F08151D8A4A6
:1006880048EF03F04AEF03F050EF03F0000E676FF6
:100698002B0E666F54EF03F0000E676F2D0E666F1A
:1006A80066C081F084C001F085C002F086C003F006
:1006B80087C004F01BEC12F001040210D8A467EF05
:1006C80003F069EF03F098EF03F000018151D8B40B
:1006D80070EF03F072EF03F07BEF03F081C000F1DD
:1006E8007107D8A07207000E836F010E826F000E8B
:1006F8008225016E010E8321026E0E0E036E2BEC15
:1007080015F00001FD0E7127FF0E722355C00FF082
:10071800000E106E010E116E71C012F072C013F04F
:10072800FFEC13F0FDEF07F084C001F085C002F084
:1007380086C003F087C004F01BEC12F001500210D1
:10074800D8A4A9EF03F0ABEF03F0C9EF03F0000161
:100758008151D8B4B2EF03F0B4EF03F0BDEF03F06A
:1007680081C000F17107D8A07207000E836F010ED7
:10077800826F000E8225016E010E8321026E120E19
:10078800036E2BEC15F085EF03F0000E0001886F67
:10079800000E896F800E8A6F3F0E8B6F000E706F90
:1007A800000E6F6F84C001F085C002F086C003F0B0
:1007B80087C004F0000E056E000E066E000E076E70
:1007C800000E086E58EC13F0D8B0EDEF03F0EFEF21
:1007D80003F0CEEF04F0FCEF03F073C088F074C0B0
:1007E80089F075C08AF076C08BF000016F4B702BD2
:1007F80088C00FF089C010F08AC011F08BC012F0C9
:10080800000E136E000E146E200E156E410E166E3D
:1008180059EC0AF00FC073F010C074F011C075F0F5
:1008280012C076F000017351845D016E74518559D0
:10083800026E75518659036E76518759046E4AECDB
:1008480014F004BE33EF04F004500310021009E161
:10085800020E015CD8A033EF04F035EF04F0F1EF9D
:1008680003F073C028F074C029F075C02AF076C070
:100878002BF084C02CF085C02DF086C02EF087C0E8
:100888002FF099EC11F0D8A04CEF04F04EEF04F0E3
:10089800F1EF03F000018851845D016E895185599B
:1008A800026E8A518659036E8B518759046E4AEC41
:1008B80014F004BE6DEF04F004500310021007E1B9
:1008C800020E015CD8B06BEF04F06DEF04F0B5EFE9
:1008D80004F088C084F089C085F08AC086F08BC097
:1008E80087F0CEEF04F088C028F089C029F08AC0CC
:1008F8002AF08BC02BF0000E2C6E000E2D6E200EF1
:100908002E6E410E2F6E6CEC0CF028C088F029C0BA
:1009180089F02AC08AF02BC08BF000016F07D8A09D
:1009280070078851845D016E89518559026E8A511C
:100938008659036E8B518759046E4AEC14F004BE35
:10094800B3EF04F004500310021007E1020E015C3B
:10095800D8B0B1EF04F0B3EF04F0B5EF04F06DEFE9
:1009680004F084C028F085C029F086C02AF087C02A
:100978002BF088C02CF089C02DF08AC02EF08BC0D7
:100988002FF099EC11F0D8A0CCEF04F0CEEF04F0E2
:1009980077EF04F05AC069F069C06AF00001DEBF61
:1009A800D8EF04F0DAEF04F0E0EF04F0DDC062F015
:1009B800DEC063F0E4EF04F0000E636F060E626FB2
:1009C80062C06DF063C06EF06D4B6E2B660E6A19D7
:1009D800D8A4F1EF04F0F3EF04F013EF05F070BFC3
:1009E800FAEF04F0F8EF04F006EF05F0000E886F58
:1009F800000E896F800E8A6F3F0E8B6F000E706F2E
:100A0800000E6F6F670E6919D8B40DEF05F00FEF80
:100A180005F013EF05F06F516D2770516E23000E2E
:100A2800786F000E776F84C079F085C07AF086C041
:100A38007BF087C07CF088C073F089C074F08AC0EE
:100A480075F08BC076F0A4EF05F079C028F07AC075
:100A580029F07BC02AF07CC02BF088C02CF089C01C
:100A68002DF08AC02EF08BC02FF06CEC0CF028C053
:100A780041F029C042F02AC043F02BC044F034ECC6
:100A88000EF041C07DF042C07EF043C07FF044C00C
:100A980080F07DC001F07EC002F07FC003F080C00E
:100AA80004F016EC11F001C06BF002C06CF079C0D4
:100AB80028F07AC029F07BC02AF07CC02BF07DC0DA
:100AC80013F07EC014F07FC015F080C016F088C007
:100AD8000FF089C010F08AC011F08BC012F059ECE9
:100AE8000AF00FC02CF010C02DF011C02EF012C06B
:100AF8002FF0C8EC14F028C079F029C07AF02AC089
:100B08007BF02BC07CF088C028F089C029F08AC00F
:100B18002AF08BC02BF0000E2C6E000E2D6E200ECE
:100B28002E6E410E2F6E6CEC0CF028C088F029C098
:100B380089F02AC08AF02BC08BF00001774B782B04
:100B48006D51775D7851800A5B6E6E51800A5B58F3
:100B5800D8A0B1EF05F0B3EF05F029EF05F088C094
:100B68000FF089C010F08AC011F08BC012F0000E8F
:100B7800136E000E146EA00E156E400E166E59EC14
:100B88000AF00FC07DF010C07EF011C07FF012C0D7
:100B980080F079C028F07AC029F07BC02AF07CC0A8
:100BA8002BF07DC02CF07EC02DF07FC02EF080C0D1
:100BB8002FF099EC11F0D8B0E4EF05F0E6EF05F06E
:100BC800F1EF05F0000E00017D6F000E7E6F000E44
:100BD8007F6F000E806F1AEF06F079C001F07AC0BF
:100BE80002F07BC003F07CC004F07DC005F07EC03D
:100BF80006F07FC007F080C008F058EC13F0D8A0CA
:100C080008EF06F00AEF06F01AEF06F000016BB1E4
:100C180010EF06F012EF06F01AEF06F0000E7D6FE7
:100C2800000E7E6F000E7F6F000E806F84C001F093
:100C380085C002F086C003F087C004F07DC005F0CF
:100C48007EC006F07FC007F080C008F0FEEC07F019
:100C580001C079F002C07AF003C07BF004C07CF0D8
:100C680079C028F07AC029F07BC02AF07CC02BF02C
:100C7800000E136E000E146E200E156E410E166EC9
:100C880073C00FF074C010F075C011F076C012F088
:100C980059EC0AF00FC02CF010C02DF011C02EF046
:100CA80012C02FF099EC11F0D8A05DEF06F05FEFBD
:100CB80006F088EF06F000016F4B702B73C00FF041
:100CC80074C010F075C011F076C012F0000E136EEB
:100CD800000E146E200E156E410E166E59EC0AF0B9
:100CE8000FC073F010C074F011C075F012C076F028
:100CF800660E00016A19D8A484EF06F086EF06F0A4
:100D080088EF06F06D4B6E2B73C088F074C089F0C5
:100D180075C08AF076C08BF06FC060F070C061F06B
:100D28000001686B000E656F000E646F000E786F2F
:100D3800000E776F85EF07F079C028F07AC029F0A8
:100D48007BC02AF07CC02BF088C02CF089C02DF025
:100D58008AC02EF08BC02FF06CEC0CF028C041F04C
:100D680029C042F02AC043F02BC044F034EC0EF006
:100D780041C07DF042C07EF043C07FF044C080F0A7
:100D88007DC001F07EC002F07FC003F080C004F097
:100D980016EC11F002BEDCEF06F0025007E10A0E75
:100DA800015CD8B0DAEF06F0DCEF06F0ECEF06F005
:100DB8007DC001F07EC002F07FC003F080C004F067
:100DC80016EC11F001C06BF002C06CF0F1EF06F008
:100DD800000E00016C6F090E6B6F00016851D8A4FA
:100DE800F8EF06F0FAEF06F022EF07F061BF01EF27
:100DF80007F0FFEF06F022EF07F0000E8225D96E0C
:100E0800010E8321DA6E2E0EDF6E824B832B710763
:100E1800D8A07207010E686F22EF07F0000E822536
:100E2800D96E010E8321DA6E300EDF6E824B832B72
:100E38007107D8A072076407D8A0650764516511C7
:100E4800D8A429EF07F02BEF07F012EF07F0000EF8
:100E58008225D96E010E8321DA6E6B51300FDF6E59
:100E6800824B832B7107D8A0720779C028F07AC00B
:100E780029F07BC02AF07CC02BF07DC013F07EC027
:100E880014F07FC015F080C016F088C00FF089C03C
:100E980010F08AC011F08BC012F059EC0AF00FC0A4
:100EA8002CF010C02DF011C02EF012C02FF0C8EC9D
:100EB80014F028C079F029C07AF02AC07BF02BC042
:100EC8007CF088C028F089C029F08AC02AF08BC03D
:100ED8002BF0000E2C6E000E2D6E200E2E6E410E85
:100EE8002F6E6CEC0CF028C088F029C089F02AC05D
:100EF8008AF02BC08BF000016007D8A06107774B00
:100F0800782B6D51775D7851800A5B6E6E51800A3F
:100F18005B58D8B092EF07F094EF07F0A2EF07F014
:100F280083BFA0EF07F0835109E14B0E825DD8A083
:100F3800A0EF07F0A2EF07F0A0EF06F0000E786F21
:100F48004F0E776F000E7725D96E010E7821DA6E75
:100F5800DF6A000E5B6E010E5C6E82515B5E835130
:100F68005C5A77515B24016E78515C20026E000E4A
:100F7800036E010E046E82C005F083C006F0A0EC7B
:100F880014F000018251775D826F83517859836F25
:100F98008151D8A4D2EF07F0D5EF07F0010ED6EFB4
:100FA80007F0000E776F786B8151D8B4DEEF07F049
:100FB800E0EF07F0EBEF07F08207D8A08307000EF9
:100FC8008225D96E010E8321DA6E81C0DFFF775149
:100FD800715F7851725B55C00FF0000E8225106E5C
:100FE800010E8321116E71C012F072C013F0FFEC74
:100FF80013F012000450800B0D6E045004240F6E81
:1010080003AE09EF08F00BEF08F00CEF08F00F80C3
:101018000F50D8B412EF08F014EF08F028EF08F0DA
:101028000F28D8A41AEF08F01CEF08F024EF08F0F6
:10103800000E016E000E026E000E036E000E046EAE
:10104800038E046A30EF08F0000E016E000E026E87
:10105800000E036E000E046E0850800B0E6E0D50CD
:101068000E18D8B43AEF08F03CEF08F03DEF08F05E
:101078000D8C085008240E6E07AE45EF08F047EFB8
:1010880008F048EF08F00E800E50D8B44EEF08F084
:1010980050EF08F064EF08F00E28D8A456EF08F0D7
:1010A80058EF08F060EF08F0000E056E000E066EAF
:1010B800000E076E000E086E078E086A6CEF08F0C7
:1010C800000E056E000E066E000E076E000E086E0E
:1010D8000F500E5CD8B073EF08F075EF08F09CEF76
:1010E80008F00DAC7AEF08F07CEF08F07EEF08F01E
:1010F800800E0D1A0FC010F00EC00FF010C00EF0C9
:1011080001C010F005C001F010C005F002C010F0D9
:1011180006C002F010C006F003C010F007C003F0CC
:1011280010C007F004C010F008C004F010C008F0A8
:10113800106A0F500EC009F00A6A095E000E0A5ABA
:101148000ABEB0EF08F00A5009E11A0E095CD8A0EF
:10115800B0EF08F0B2EF08F0E9EF08F00150021024
:1011680003100410D8A4BBEF08F0BEEF08F0010E7E
:10117800BFEF08F0000E106E000E016E000E026E3A
:10118800000E036E000E046E0EC00FF0F2EF08F0B2
:1011980010A0D1EF08F0D3EF08F0D9EF08F0D890FD
:1011A80010300109106EDBEF08F0D890103201A062
:1011B800E0EF08F0E2EF08F0E3EF08F0108E0434F7
:1011C80004320332023201320F2A0E500F5CD8A0CB
:1011D800F0EF08F0F2EF08F0CCEF08F00DBCF7EFF5
:1011E80008F0F9EF08F039EF09F00F50D8A4FFEF35
:1011F80008F001EF09F00BEF09F0000E016E000E88
:10120800026E000E036E000E046E58EF0AF00550D1
:10121800012606500222075003220850042204A087
:1012280018EF09F01AEF09F0C6EF09F010A01FEF48
:1012380009F021EF09F027EF09F0D89010300109E3
:10124800106E29EF09F0D890103201A02EEF09F0A6
:1012580030EF09F031EF09F0108E04340432033214
:10126800023201320F2AC6EF09F00550015C065020
:101278000258075003580450800A096E0850800A23
:101288000958D8B04AEF09F04CEF09F077EF09F0A8
:101298000150055C096E025006580A6E0350075843
:1012A8000B6E045008580C6EFF0E0924016EFF0ED9
:1012B8000A20026EFF0E0B20036EFF0E0C20046E38
:1012C800800E0D1A106C1050D8A46DEF09F06FEF56
:1012D80009F07FEF09F0010E0126000E0222032219
:1012E80004227FEF09F00550015E0650025A0750AC
:1012F800035A0850045A0150021003100410D8A4CD
:1013080088EF09F08AEF09F0BFEF09F01050D8A470
:1013180090EF09F092EF09F0BFEF09F0000E016EAF
:10132800000E026E000E036E000E046E58EF0AF0F7
:10133800D890013602360336043610AEA6EF09F00F
:10134800A8EF09F0A9EF09F0018010A0AEEF09F0AD
:10135800B0EF09F0B4EF09F0D8801036B6EF09F015
:10136800D89010360F50D8B4BCEF09F0BEEF09F092
:10137800BFEF09F00F0603AEC4EF09F0C6EF09F09E
:101388009CEF09F00E6A10AECCEF09F0CEEF09F031
:10139800E6EF09F010C009F07F0E0916D8B4D7EFB0
:1013A80009F0D9EF09F0DDEF09F0010E0E6EE6EF56
:1013B80009F001A0E2EF09F0E4EF09F0E6EF09F027
:1013C800D9EF09F00E50D8B4ECEF09F0EEEF09F0C0
:1013D80019EF0AF0010E0126000E02220322042250
:1013E80004A0F9EF09F0FBEF09F019EF0AF001C0CA
:1013F80009F002C00AF003C00BF004C00CF00C3472
:101408000C320B320A32093209C001F00AC002F06C
:101418000BC003F00CC004F00F28D8B416EF0AF084
:1014280018EF0AF019EF0AF00F2A0F28D8B41FEFA7
:101438000AF021EF0AF029EF0AF00F50D8A427EF9D
:101448000AF029EF0AF03AEF0AF0000E016E000EDA
:10145800026E000E036E000E046E0F50D8A437EF14
:101468000AF039EF0AF03AEF0AF00D6A0FA03FEFE1
:101478000AF041EF0AF044EF0AF0038E45EF0AF054
:10148800039ED8900F30046E0DAE4DEF0AF04FEF6B
:101498000AF050EF0AF0048E01C001F002C002F019
:1014A80003C003F004C004F012001250800B1B6E3E
:1014B80012501224216E11AE64EF0AF066EF0AF0A2
:1014C80067EF0AF021802150D8B46DEF0AF06FEF72
:1014D8000AF082EF0AF02128D8A475EF0AF077EF16
:1014E8000AF07FEF0AF0000E0F6E000E106E000E6D
:1014F800116E000E126E118E8AEF0AF0000E0F6E3A
:10150800000E106E000E116E000E126E1650800B3B
:101518001B1A16501624206E15AE95EF0AF097EF99
:101528000AF098EF0AF020802050D8B49EEF0AF015
:10153800A0EF0AF0B3EF0AF02028D8A4A6EF0AF02B
:10154800A8EF0AF0B0EF0AF0000E136E000E146E4A
:10155800000E156E000E166E158EBBEF0AF0000E0B
:10156800136E000E146E000E156E000E166E2050CF
:10157800D8B4C1EF0AF0C3EF0AF0CBEF0AF021505C
:10158800D8A4C9EF0AF0CBEF0AF0D5EF0AF0000EA5
:101598000F6E000E106E000E116E000E126E6BEFC5
:1015A8000CF015500F02F3CF26F0F4CF27F0265099
:1015B8001C6E1D6A1E6A1F6A2750226E236A246ADF
:1015C800256A14501002F3CF26F0F4CF27F02650E6
:1015D8001C26000E1D221E221F2227502226000E26
:1015E80023222422252213501102F3CF26F0F4CF10
:1015F80027F026501C26000E1D221E221F222750CF
:101608002226000E2322242225221EC01FF01DC0E0
:101618001EF01CC01DF01C6A13501002F3CF26F0F8
:10162800F4CF27F026501C2627501D22000E1E221C
:10163800000E1F2214500F02F3CF26F0F4CF27F02C
:1016480026501C2627501D22000E1E22000E1F2287
:101658001EC01FF01DC01EF01CC01DF01C6A1350D8
:101668000F02F3CF26F0F4CF27F026501C26275080
:101678001D22000E1E22000E1F2215501002F3CF4D
:1016880026F0F4CF27F02650222627502322000EDA
:101698002422000E252214501102F3CF26F0F4CF95
:1016A80027F02650222627502322000E2422000E3F
:1016B800252215501102F3CF26F0F4CF27F026503B
:1016C800176E2750186E196A1A6A19C01AF018C0CE
:1016D80019F017C018F0176A17502226185023223D
:1016E800195024221A5025221CC017F01DC018F0CA
:1016F8001EC019F01FC01AF0190E88EF0BF0D89011
:101708001A32193218321732E82E83EF0BF01750BD
:10171800222618502322195024221A5025221EC08E
:101728001FF01DC01EF01CC01DF01C6A205021C0F7
:1017380017F0186A1726000E1822820E1724266E34
:10174800FF0E1820276EBEEF0BF0D89022362336F6
:10175800243625361FAEB3EF0BF0B5EF0BF0B6EF1E
:101768000BF02280D8901C361D361E361F362606F2
:10177800D8A0270624AEC3EF0BF0C5EF0BF0A9EFF6
:101788000BF0206A1FAECBEF0BF0CDEF0BF0F1EFB3
:101798000BF0FF0E1C14176EFF0E1D14186EFF0EB3
:1017A8001E14196E7F0E1F141A6E17501810191078
:1017B8001A10D8B4E2EF0BF0E4EF0BF0E8EF0BF0FF
:1017C800010E206EF1EF0BF022A0EDEF0BF0EFEF22
:1017D8000BF0F1EF0BF0E4EF0BF02050D8B4F7EF7B
:1017E8000BF0F9EF0BF01DEF0CF0010E2226000EA6
:1017F80023222422252225A004EF0CF006EF0CF06A
:101808001DEF0CF022C017F023C018F024C019F007
:1018180025C01AF01A341A3219321832173217C082
:1018280022F018C023F019C024F01AC025F0264A67
:10183800272A27BE28EF0CF0275008E12628D8A031
:1018480028EF0CF02AEF0CF034EF0CF0000E226EAB
:10185800000E236E800E246E7F0E256E61EF0CF055
:1018680027BE41EF0CF0275006E12604D8B03FEF21
:101878000CF041EF0CF04CEF0CF0000E226E000E55
:10188800236E000E246E000E256E1B6A61EF0CF0AD
:1018980026C021F0FF0E2216FF0E23167F0E2416F7
:1018A800000E251621A05BEF0CF05DEF0CF05EEF4B
:1018B8000CF0248ED8902130256E1B50251222C0A2
:1018C8000FF023C010F024C011F025C012F0120050
:1018D8002B50800B386E2B502B243F6E2AAE77EF9F
:1018E8000CF079EF0CF07AEF0CF03F803F50D8B451
:1018F80080EF0CF082EF0CF096EF0CF03F28D8A4A4
:1019080088EF0CF08AEF0CF092EF0CF0000E286EC6
:10191800000E296E000E2A6E000E2B6E2A8E2B6A80
:101928009EEF0CF0000E286E000E296E000E2A6E37
:10193800000E2B6E2F50800B381A2F502F24406E1C
:101948002EAEA9EF0CF0ABEF0CF0ACEF0CF0408032
:101958004050D8B4B2EF0CF0B4EF0CF0C8EF0CF074
:101968004028D8A4BAEF0CF0BCEF0CF0C4EF0CF090
:10197800000E2C6E000E2D6E000E2E6E000E2F6EB9
:101988002E8E2F6AD0EF0CF0000E2C6E000E2D6EEE
:10199800000E2E6E000E2F6E2C502D102E102F10B4
:1019A800D8A4D9EF0CF0DBEF0CF0F3EF0CF0000E3D
:1019B800286E000E296E000E2A6E000E2B6E800E09
:1019C8002A127F0E2B1238502B1228C028F029C05B
:1019D80029F02AC02AF02BC02BF033EF0EF03F502D
:1019E800D8A4F9EF0CF0FBEF0CF005EF0DF0000EAA
:1019F800286E000E296E000E2A6E000E2B6E33EF35
:101A08000EF040503FC030F0316A305E000E315A5F
:101A18007F0E3024396E000E31203A6E28C034F023
:101A280029C035F02AC036F02BC037F0000E286EDA
:101A3800000E296E000E2A6E000E2B6E000E3B6EF5
:101A4800000E3C6E000E3D6E000E3E6E406A65EF65
:101A58000DF04050D8B433EF0DF035EF0DF04CEFEA
:101A68000DF0D8903436353636363736D890283695
:101A780029362A362B363EAE44EF0DF046EF0DF0F0
:101A880047EF0DF02880D8903B363C363D363E3641
:101A98002C50345C2D5035582E5036582F5037580E
:101AA800D8A059EF0DF05BEF0DF064EF0DF03E8C10
:101AB8002C50345E2D50355A2E50365A2F50375AE6
:101AC800402A190E40646BEF0DF06DEF0DF02DEF0D
:101AD8000DF03450351036103710D8B476EF0DF0BD
:101AE80078EF0DF090EF0DF03B8090EF0DF0D8906F
:101AF800283629362A362B363EAE85EF0DF087EF8D
:101B08000DF088EF0DF02880D8903B363C363D36F6
:101B18003E363906D8A03A062AAE95EF0DF097EF73
:101B28000DF07BEF0DF0406A3EAE9DEF0DF09FEF9C
:101B38000DF0C3EF0DF0FF0E3B14306EFF0E3C149A
:101B4800316EFF0E3D14326E7F0E3E14336E3050F0
:101B5800311032103310D8B4B4EF0DF0B6EF0DF0E9
:101B6800BAEF0DF0010E406EC3EF0DF028A0BFEFE5
:101B78000DF0C1EF0DF0C3EF0DF0B6EF0DF04050D2
:101B8800D8B4C9EF0DF0CBEF0DF0EFEF0DF0010E6B
:101B98002826000E29222A222B222BA0D6EF0DF070
:101BA800D8EF0DF0EFEF0DF028C030F029C031F07C
:101BB8002AC032F02BC033F0333433323232313270
:101BC800303230C028F031C029F032C02AF033C09A
:101BD8002BF0394A3A2A3ABEFAEF0DF03A5008E1AA
:101BE8003928D8A0FAEF0DF0FCEF0DF007EF0EF052
:101BF800000E3A6E3968000E286E000E296E000E2F
:101C08002A6E000E2B6E3ABE14EF0EF03A5006E123
:101C18003904D8B012EF0EF014EF0EF021EF0EF0E9
:101C2800000E3A6E000E396E000E286E000E296EF8
:101C3800000E2A6E000E2B6E386A39C03FF03FA0A6
:101C480028EF0EF02AEF0EF02DEF0EF02A8E2EEF71
:101C58000EF02A9ED8903F302B6EE7EF0CF0120062
:101C6800D3C051F0D4C052F0D5C053F0D6C054F010
:101C780041C051F042C052F043C053F044C054F048
:101C8800810E456EFF0E466E51C047F052C048F0B7
:101C980053C049F054C04AF0180E58EF0EF0D890CF
:101CA8004A32493248324732E82E53EF0EF0475055
:101CB80045244F6E000E4620506E50BE6DEF0EF05C
:101CC800505009E1170E4F5CD8A06DEF0EF06FEF82
:101CD8000EF079EF0EF041C041F042C042F043C02F
:101CE80043F044C044F03CEF0FF050BE7EEF0EF0DE
:101CF80080EF0EF0F0EF0EF04FC045F0FF0E466E8D
:101D0800FF0E476E7F0E486E000E496E45668FEFD8
:101D18000EF097EF0EF049344932483247324632D6
:101D2800452E8AEF0EF046C04BF047C04CF048C035
:101D38004DF049C04EF04B505114456E4C50521462
:101D4800466E4D505314476E4E505414486E4550CD
:101D5800461047104810D8A4B4EF0EF0B6EF0EF0B6
:101D6800B8EF0EF06FEF0EF051C045F052C046F0DC
:101D780053C047F054C048F0200EC8EF0EF0D8907A
:101D88004832473246324532E82EC3EF0EF045500E
:101D9800461047104810D8B4D4EF0EF0D6EF0EF026
:101DA800DEEF0EF04B5051264C5052224D5053222C
:101DB8004E5054224B1C456E4C1C466E4D1C476EB3
:101DC8004E1C486E455051164650521647505316F1
:101DD8004850541634EF0FF051C045F052C046F049
:101DE80053C047F054C048F0200E00EF0FF0D890D1
:101DF8004832473246324532E82EFBEF0EF0455066
:101E0800461047104810D8A40CEF0FF00EEF0FF053
:101E180018EF0FF0000E516E000E526E000E536E4A
:101E2800000E546E34EF0FF0D8905134456E523492
:101E3800466E5334476E5434486E4550461047102A
:101E48004810D8B42AEF0FF02CEF0FF034EF0FF052
:101E5800000E516E000E526E800E536EBF0E546E01
:101E680051C041F052C042F053C043F054C044F056
:101E780012005E50D96EDA6ADFCFF6FF060EF76EF3
:101E88000800F550250AD8A44CEF0FF04EEF0FF0DC
:101E98002AEF10F05E50D96EDA6ADF2A000E0001D0
:101EA800DC6F000EDB6FDBC0DFF0DD69DE695EC072
:101EB80001F05FC002F0ADEC13F001C0DBF002C02E
:101EC800DCF00001DCBF6DEF0FF06BEF0FF072EF8D
:101ED8000FF0DF81DB6DDC1FD8B0DC2B5E50D96ED4
:101EE800DA6ADFCFF6FF060EF76E0800F5502E0A05
:101EF800D8A481EF0FF083EF0FF091EF0FF05E5051
:101F0800D96EDA6ADF2A5EC001F05FC002F0ADEC7C
:101F180013F001C0DDF002C0DEF05E50D96EDA6A5F
:101F2800DF500001926F92C0F6FF060EF76E0800B0
:101F3800F5CF91F0AAEF0FF0922BB9EF0FF06C0EDE
:101F4800916FB9EF0FF0916BB9EF0FF091514C0A07
:101F5800D8B4A0EF0FF02A0AD8B4A3EF0FF00A0AFA
:101F6800D8B4A0EF0FF0A7EF0FF092C0F6FF060E5F
:101F7800F76E0800F550660AD8A4C5EF0FF0C7EF52
:101F88000FF024EF10F0F1EF0FF05F50D96EDA6A1E
:101F9800DFCF8CF0040EDF268C51D96EDA6ADECFE3
:101FA8008DF0DECF8EF0DECF8FF0DECF90F0FCEF3D
:101FB8000FF05F50D96EDA6ADFCF8CF0040EDF269F
:101FC8008C51D96EDA6ADECF8DF0DECF8EF0DECF9F
:101FD8008FF0DECF90F0FCEF0FF091514C0AD8B49F
:101FE800DDEF0FF0200AD8B4C9EF0FF0FCEF0FF0C7
:101FF8005E50D96EDA6A9229DF6E18EF10F05DC074
:1020080055F08DC056F08EC057F08FC058F090C074
:1020180059F092C0F6FF060EF76E0800F5CF5AF099
:102028000CEC03F03BEF10F092C0F6FF060EF76ED3
:102038000800F550660AD8B403EF10F024EF10F04A
:102048005E50D96EDA6ADF2A3BEF10F05E50D96E27
:10205800DA6ADFCFF6FF060EF76E0800F550016E5C
:10206800026A5DC003F003EC13F024EF10F01200D5
:10207800096E0950D8B443EF10F045EF10F067EF40
:1020880010F004BE4CEF10F04AEF10F067EF10F0BC
:1020980001C005F002C006F003C007F004C008F054
:1020A800051E061E071E081E052A000E0622072208
:1020B800082205C00BF006C00CF007C00DF008C0E0
:1020C8000EF06FEF10F001C00BF002C00CF003C06F
:1020D8000DF004C00EF00150021003100410D8A433
:1020E80078EF10F07AEF10F084EF10F0000E016E28
:1020F800000E026E000E036E000E046E15EF11F056
:10210800960E0A6E8EEF10F00A2AD8900E320D3213
:102118000C320B32000E0B14056E000E0C14066EFA
:10212800000E0D14076EFE0E0E14086E05500610F4
:1021380007100810D8A4A3EF10F0A5EF10F088EF4F
:1021480010F0B3EF10F00A2A010E0B26000E0C2235
:102158000D220E22D8900E320D320C320B32000EA8
:102168000B14056E000E0C14066E000E0D14076E8F
:10217800FF0E0E14086E0550061007100810D8A49C
:10218800C8EF10F0CAEF10F0A7EF10F0D2EF10F080
:102198000A06D8900B360C360D360E360DBED7EF24
:1021A80010F0D9EF10F0E1EF10F0020E0A60DFEF47
:1021B80010F0E1EF10F0CCEF10F00AB0E6EF10F0FD
:1021C800E8EF10F0E9EF10F00D9ED8900A320AC03F
:1021D80005F0066A076A086A05C008F0076A066A11
:1021E800056A05500B1206500C1207500D120850C4
:1021F8000E120950D8B403EF11F005EF11F00DEFEE
:1022080011F004BE0CEF11F00AEF11F00DEF11F010
:102218000E8E0BC001F00CC002F00DC003F00EC012
:1022280004F01200033404340A6E0A50D8A41FEFD5
:1022380011F021EF11F02BEF11F0000E016E000EDE
:10224800026E000E036E000E046E98EF11F001C0CE
:1022580005F002C006F003C007F004C008F0200E25
:102268003BEF11F0D8900832073206320532E82EDB
:1022780036EF11F00550096E038EFF0E0116FF0EA2
:102288000216FF0E0316000E0416960E0A5E0ABE0C
:1022980052EF11F050EF11F068EF11F00A50800A78
:1022A800970FD8B05AEF11F05CEF11F05EEF11F014
:1022B80021EF11F0D89004320332023201320A3E83
:1022C8005EEF11F080EF11F01F0E0A646EEF11F04F
:1022D80070EF11F078EF11F021EF11F0D89001367E
:1022E8000236033604360A060A50D8A47EEF11F0E7
:1022F80080EF11F072EF11F00950D8B486EF11F0A9
:1023080088EF11F090EF11F0041E031E021E016CFD
:10231800000E02220322042201C001F002C002F0D2
:1023280003C003F004C004F01200000E2814306E3D
:10233800000E2914316E800E2A14326E7F0E2B1473
:10234800336E3050311032103310D8A4AEEF11F084
:10235800B0EF11F0B8EF11F0000E286E000E296EE4
:10236800000E2A6E000E2B6E000E2C14306E000E1E
:102378002D14316E800E2E14326E7F0E2F14336E94
:102388003050311032103310D8A4CDEF11F0CFEF08
:1023980011F0D7EF11F0000E2C6E000E2D6E000E0E
:1023A8002E6E000E2F6E2BAEDCEF11F0DEEF11F06B
:1023B800E7EF11F0286C291ED8B0292A2A1ED8B0B8
:1023C8002A2A800E2B562FAEECEF11F0EEEF11F00B
:1023D800F7EF11F02C6C2D1ED8B02D2A2E1ED8B078
:1023E8002E2A800E2F56000E281A000E291A000ECB
:1023F8002A1A800E2B1A000E2C1A000E2D1A000E07
:102408002E1A800E2F1A2C50285C2D5029582E5029
:102418002A582F502B58D8B014EF12F016EF12F09C
:1024280019EF12F0D8901AEF12F0D8801200D7C026
:102438000BF0D8C00CF0D9C00DF0DAC00EF001C016
:102448000BF002C00CF003C00DF004C00EF00BC07E
:1024580005F00CC006F00DC007F00EC008F0180E0D
:102468003BEF12F0D8900832073206320532E82ED8
:1024780036EF12F00550096E0A6A09500A10D8A4FE
:1024880048EF12F04AEF12F06AEF12F0D8900B34CE
:10249800056E0C34066E0D34076E0E34086E05504A
:1024A800061007100810D8A45CEF12F05EEF12F0C7
:1024B80064EF12F0000E026E020E016E99EF12F038
:1024C800000E026E030E016E99EF12F009280A1031
:1024D800D8A471EF12F073EF12F095EF12F00BC061
:1024E80005F00CC006F00DC007F00EC008F0090E8C
:1024F800D8900536063607360836E82E7CEF12F0F7
:102508000550061007100810D8B48DEF12F090EFA0
:1025180012F0010E91EF12F0000E016E026A99EFAF
:1025280012F0000E026E040E016E1200700ED36ED1
:10253800A6EC15F0C0EC15F0000E75EC14F001C017
:10254800E4F002C0E5F0000E136E000E146EA00E4B
:10255800156E400E166EE4C001F0E5C002F0000EE4
:1025680002BEFF0E036E046E010E3CEC10F001C0BB
:102578000FF002C010F003C011F004C012F059ECC3
:102588000AF00FC028F010C029F011C02AF012C0BC
:102598002BF0000E2C6EC00E2D6E7F0E2E6E440E8C
:1025A8002F6E6CEC0CF028C0E0F029C0E1F02AC0D6
:1025B800E2F02BC0E3F0AB0E0001976F010E986FAD
:1025C800E0C099F0E1C09AF0E2C09BF0E3C09CF053
:1025D80048EC15F0AB0E026E80EC15F0520E0001BF
:1025E800AA6F2B0EA96F000EE82EFED7A92FFCD7D5
:1025F800AA2FFAD70000A0EF12F0FEEF3FF0035029
:10260800D8B409EF13F00BEF13F013EF13F00350E6
:10261800D8A411EF13F013EF13F018EF13F00150D3
:10262800C9EC15F057EF13F00350D96EDA6A090EAA
:10263800D926DE50DE10D8B424EF13F026EF13F0BD
:102648003FEF13F00350D96EDA6A090ED92603500A
:10265800E16EE26A020EE126DE50E65CE650800A90
:10266800086EDE50800A0858D8B03DEF13F03FEFEF
:1026780013F057EF13F00350D96EDA6A020ED92619
:10268800DF50046E0350D96EDA6ADF500424D96E25
:10269800DA6A01C0DFFF0350D96EDA6A020ED92662
:1026A800DE2A000EDD221200000E0114096E000E53
:1026B80002140A6E800E03140B6E7F0E04140C6E47
:1026C80009500A100B100C10D8A46DEF13F06FEF1F
:1026D80013F077EF13F0000E016E000E026E000E7D
:1026E800036E000E046E000E0514096E000E06142B
:1026F8000A6E800E07140B6E7F0E08140C6E0950BC
:102708000A100B100C10D8A48CEF13F08EEF13F0F6
:1027180096EF13F0000E056E000E066E000E076EA3
:10272800000E086E055001180FE1065002180CE162
:102738000750031809E108500418D8B4A6EF13F09D
:10274800A8EF13F0ABEF13F0D890ACEF13F0D880EC
:102758001200000E076E000E066E0150D96EDA6A7E
:10276800DFCFF6FF060EF76E0800F5502A0AD8A448
:10277800C0EF13F0C2EF13F0E7EF13F00150D96E7A
:10278800DA6ADF2A0250D96EDA6A020EDF26DF5CC7
:10279800D96EDA6ADECF06F0DECF07F0FAEF13F073
:1027A8000A0E0602F3CF03F0F4CF04F00702F35049
:1027B800042605500324066E000E0420076E0150FF
:1027C800D96EDA6ADF2A0150D96EDA6ADFCFF6FFEE
:1027D800060EF76E0800F550D00F056E090E056459
:1027E800F8EF13F0FAEF13F0D4EF13F006C001F08E
:1027F80007C002F012000001DFA105EF14F007EF97
:1028080014F00FEF14F010C009F011C00AF00FC057
:102818000BF00BEC15F013BE16EF14F014EF14F0D8
:102828001AEF14F0000E136E000E126E000E166EE4
:10283800000E156E2AEF14F0000E026E200E016EC7
:102848000FC003F003EC13F0154A162A1250155C5A
:102858001650800A146E1350800A1458D8A037EF07
:1028680014F039EF14F020EF14F00001DFB13FEF5E
:1028780014F041EF14F049EF14F010C009F011C042
:102888000AF00FC00BF00BEC15F0120004BE4FEF6E
:1028980014F051EF14F05BEF14F001C001F002C026
:1028A80002F003C003F004C004F074EF14F001C098
:1028B80005F002C006F003C007F004C008F0051ECA
:1028C800061E071E081E052A000E062207220822D9
:1028D80005C001F006C002F007C003F008C004F00C
:1028E8001200056E0D0E05647CEF14F07EEF14F0F7
:1028F80084EF14F0000E026E000E016E9FEF14F0CC
:10290800C30EC2160544E846FC0BC2121A0EE82E86
:10291800FED700D0C282C2B294EF14F096EF14F042
:102928008FEF14F0C450046E036AC3500324016E81
:10293800000E0420026E120003C009F004C00AF061
:1029480001C007F002C008F0BAEF14F009C0D9FFBF
:102958000AC0DAFFDF500B6E094A0A2A07C0D9FFFE
:1029680008C0DAFF0BC0DFFF074A082A0506D8A00F
:102978000606052806E10628D8A4C5EF14F0C7EF17
:1029880014F0AAEF14F01200000E2C1A000E2D1AE3
:10299800000E2E1A800E2F1A28C001F029C002F04E
:1029A8002AC003F02BC004F02CC005F02DC006F09F
:1029B8002EC007F02FC008F0FEEC07F001C028F089
:1029C80002C029F003C02AF004C02BF0120094C002
:1029D80096F0F7EF14F093C05DF0960E5E6E95C01A
:1029E8005FF03DEC0FF096C0F6FF060EF76E08009C
:1029F800F5500009D8A403EF15F005EF15F0EFEF37
:102A080014F0000E0001946F000E936F1200000E78
:102A18000E6E000E0D6E1AEF15F00CC001F0026A72
:102A28000BC003F003EC13F00D4A0E2A0D500924D5
:102A3800D96E0E500A20DA6EDF500C6E0C50D8A4F6
:102A480028EF15F02AEF15F011EF15F0120001C06C
:102A580005F002C006F0032A0304046E04C0F6FF62
:102A6800060EF76E05C0D9FF06C0DAFF054A062A2A
:102A78000800F5CFDFFFDF50D8A445EF15F047EF8A
:102A880015F02FEF15F01200990E00019D6F97C0F9
:102A98009EF0000EA16F000EA06F000EA86F000E32
:102AA800A76F9E0E936F98C094F09D0E956FEBECF8
:102AB80014F000019751A025D96EDA6ADF6A120076
:102AC8000150021003100410D8B46DEF15F06FEF29
:102AD80015F077EF15F0000E011A000E021A000E1D
:102AE800031A800E041A01C001F002C002F003C0EC
:102AF80003F004C004F0120089EF15F00250D96EFB
:102B0800DA6ADF50B5EC15F0022A0250D96EDA6A9B
:102B1800DF50D8A492EF15F094EF15F082EF15F07E
:102B2800120001EE00F0500EEE6AE806FDE100EE3C
:102B3800D3F00D0EEE6AE806FDE1000EF86E000116
:102B48009AEF12F0949C948E190EAF6EAC94B896CE
:102B5800AB8EAC98AC8AAB889D8A9E9AF28CF28E2A
:102B68001200016EACA2BBEF15F0BDEF15F0B6EF89
:102B780015F001C0ADFF120092800F013881C16AC3
:0C2B8800BE0EC06E010EC26E12001200E4
:047FFC0095EF15F0F8
:020000040020DA
:08000000FFFFFFFFFFFFFFFF00
:020000040030CA
:0E000000FF281F3CFFBF81FF0FC00FE00F4025
:00000001FF
