:04000000FEEF3FF0E0
:1006000000486F6C612C20554152542066756E6312
:10061000696F6E616E646F210D0A0000700ED36EFB
:100620003CEC03F0010E026E26EC03F0150E046E96
:100630004B0E036EBE0EE82EFED7032EFCD7042E03
:10064000FAD700D012EF03F0FEEF3FF02FEF03F0E8
:1006500002C0F6FF0800F5504BEC03F0022A02C07E
:10066000F6FF0800F5500009D8A439EF03F03BEF7E
:1006700003F028EF03F01200949C948E190EAF6ED5
:10068000AC94B896AB8EAC98AC8AAB889D8A9E9A97
:10069000F28CF28E1200016EACA251EF03F053EF18
:1006A00003F04CEF03F001C0ADFF1200000EF86E36
:0A06B000060EF76E00010EEF03F0D6
:047FFC0056EF03F049
:020000040020DA
:08000000FFFFFFFFFFFFFFFF00
:020000040030CA
:0E000000FF281F3CFFBF81FF0FC00FE00F4025
:00000001FF
