:04000000FEEF3FF0E0
:1006000000486F6C612C20554152542066756E6312
:10061000696F6E616E646F210D0A00563A202531B4
:100620002E326620560D0A00696E66006E616E00FD
:0106300000C9
:100632000001816B56C084F057C085F058C086F027
:1006420059C087F087BF2AEF03F028EF03F03EEF8F
:1006520003F0010E816F84C001F085C002F086C0F4
:1006620003F087C004F0A9EC15F001C084F002C0C9
:1006720085F003C086F004C087F0000E0001836F8E
:10068200000E826FDBC071F0DCC072F08151D8B411
:100692004DEF03F04FEF03F063EF03F08151D8A465
:1006A20055EF03F057EF03F05DEF03F0000E676FB5
:1006B2002B0E666F61EF03F0000E676F2D0E666FF3
:1006C20066C081F084C001F085C002F086C003F0EC
:1006D20087C004F028EC12F001040210D8A474EFD1
:1006E20003F076EF03F0A5EF03F000018151D8B4D7
:1006F2007DEF03F07FEF03F088EF03F081C000F19C
:100702007107D8A07207000E836F010E826F000E70
:100712008225016E010E8321026E280E036E70EC9B
:1007220015F00001FD0E7127FF0E722355C00FF068
:10073200000E106E010E116E71C012F072C013F035
:1007420015EC14F00AEF08F084C001F085C002F045
:1007520086C003F087C004F028EC12F001500210AA
:10076200D8A4B6EF03F0B8EF03F0D6EF03F0000120
:100772008151D8B4BFEF03F0C1EF03F0CAEF03F029
:1007820081C000F17107D8A07207000E836F010EBD
:10079200826F000E8225016E010E8321026E2C0EE5
:1007A200036E70EC15F092EF03F0000E0001886FFB
:1007B200000E896F800E8A6F3F0E8B6F000E706F76
:1007C200000E6F6F84C001F085C002F086C003F096
:1007D20087C004F0000E056E000E066E000E076E56
:1007E200000E086E6EEC13F0D8B0FAEF03F0FCEFD7
:1007F20003F0DBEF04F009EF04F073C088F074C07B
:1008020089F075C08AF076C08BF000016F4B702BB7
:1008120088C00FF089C010F08AC011F08BC012F0AE
:10082200000E136E000E146E200E156E410E166E23
:1008320066EC0AF00FC073F010C074F011C075F0CE
:1008420012C076F000017351845D016E74518559B6
:10085200026E75518659036E76518759046E8FEC7C
:1008620014F004BE40EF04F004500310021009E13A
:10087200020E015CD8A040EF04F042EF04F0FEEF5C
:1008820003F073C028F074C029F075C02AF076C056
:100892002BF084C02CF085C02DF086C02EF087C0CE
:1008A2002FF0A6EC11F0D8A059EF04F05BEF04F0A2
:1008B200FEEF03F000018851845D016E8951855974
:1008C200026E8A518659036E8B518759046E8FECE2
:1008D20014F004BE7AEF04F004500310021007E192
:1008E200020E015CD8B078EF04F07AEF04F0C2EFA8
:1008F20004F088C084F089C085F08AC086F08BC07D
:1009020087F0DBEF04F088C028F089C029F08AC0A4
:100912002AF08BC02BF0000E2C6E000E2D6E200ED6
:100922002E6E410E2F6E79EC0CF028C088F029C093
:1009320089F02AC08AF02BC08BF000016F07D8A083
:1009420070078851845D016E89518559026E8A5102
:100952008659036E8B518759046E8FEC14F004BED6
:10096200C0EF04F004500310021007E1020E015C14
:10097200D8B0BEEF04F0C0EF04F0C2EF04F07AEF9B
:1009820004F084C028F085C029F086C02AF087C010
:100992002BF088C02CF089C02DF08AC02EF08BC0BD
:1009A2002FF0A6EC11F0D8A0D9EF04F0DBEF04F0A1
:1009B20084EF04F05AC069F069C06AF00001DEBF3A
:1009C200E5EF04F0E7EF04F0EDEF04F0DDC062F0D4
:1009D200DEC063F0F1EF04F0000E636F060E626F8B
:1009E20062C06DF063C06EF06D4B6E2B660E6A19BD
:1009F200D8A4FEEF04F000EF05F020EF05F070BF81
:100A020007EF05F005EF05F013EF05F0000E886F14
:100A1200000E896F800E8A6F3F0E8B6F000E706F13
:100A2200000E6F6F670E6919D8B41AEF05F01CEF4C
:100A320005F020EF05F06F516D2770516E23000E07
:100A4200786F000E776F84C079F085C07AF086C027
:100A52007BF087C07CF088C073F089C074F08AC0D4
:100A620075F08BC076F0B1EF05F079C028F07AC04E
:100A720029F07BC02AF07CC02BF088C02CF089C002
:100A82002DF08AC02EF08BC02FF079EC0CF028C02C
:100A920041F029C042F02AC043F02BC044F041EC9F
:100AA2000EF041C07DF042C07EF043C07FF044C0F2
:100AB20080F07DC001F07EC002F07FC003F080C0F4
:100AC20004F023EC11F001C06BF002C06CF079C0AD
:100AD20028F07AC029F07BC02AF07CC02BF07DC0C0
:100AE20013F07EC014F07FC015F080C016F088C0ED
:100AF2000FF089C010F08AC011F08BC012F066ECC2
:100B02000AF00FC02CF010C02DF011C02EF012C050
:100B12002FF00DEC15F028C079F029C07AF02AC028
:100B22007BF02BC07CF088C028F089C029F08AC0F5
:100B32002AF08BC02BF0000E2C6E000E2D6E200EB4
:100B42002E6E410E2F6E79EC0CF028C088F029C071
:100B520089F02AC08AF02BC08BF00001774B782BEA
:100B62006D51775D7851800A5B6E6E51800A5B58D9
:100B7200D8A0BEEF05F0C0EF05F036EF05F088C053
:100B82000FF089C010F08AC011F08BC012F0000E75
:100B9200136E000E146EA00E156E400E166E66ECED
:100BA2000AF00FC07DF010C07EF011C07FF012C0BD
:100BB20080F079C028F07AC029F07BC02AF07CC08E
:100BC2002BF07DC02CF07EC02DF07FC02EF080C0B7
:100BD2002FF0A6EC11F0D8B0F1EF05F0F3EF05F02D
:100BE200FEEF05F0000E00017D6F000E7E6F000E1D
:100BF2007F6F000E806F27EF06F079C001F07AC098
:100C020002F07BC003F07CC004F07DC005F07EC022
:100C120006F07FC007F080C008F06EEC13F0D8A099
:100C220015EF06F017EF06F027EF06F000016BB1A3
:100C32001DEF06F01FEF06F027EF06F0000E7D6FA6
:100C4200000E7E6F000E7F6F000E806F84C001F079
:100C520085C002F086C003F087C004F07DC005F0B5
:100C62007EC006F07FC007F080C008F00BEC08F0F1
:100C720001C079F002C07AF003C07BF004C07CF0BE
:100C820079C028F07AC029F07BC02AF07CC02BF012
:100C9200000E136E000E146E200E156E410E166EAF
:100CA20073C00FF074C010F075C011F076C012F06E
:100CB20066EC0AF00FC02CF010C02DF011C02EF01F
:100CC20012C02FF0A6EC11F0D8A06AEF06F06CEF7C
:100CD20006F095EF06F000016F4B702B73C00FF01A
:100CE20074C010F075C011F076C012F0000E136ED1
:100CF200000E146E200E156E410E166E66EC0AF092
:100D02000FC073F010C074F011C075F012C076F00D
:100D1200660E00016A19D8A491EF06F093EF06F06F
:100D220095EF06F06D4B6E2B73C088F074C089F09E
:100D320075C08AF076C08BF06FC060F070C061F051
:100D42000001686B000E656F000E646F000E786F15
:100D5200000E776F92EF07F079C028F07AC029F081
:100D62007BC02AF07CC02BF088C02CF089C02DF00B
:100D72008AC02EF08BC02FF079EC0CF028C041F025
:100D820029C042F02AC043F02BC044F041EC0EF0DF
:100D920041C07DF042C07EF043C07FF044C080F08D
:100DA2007DC001F07EC002F07FC003F080C004F07D
:100DB20023EC11F002BEE9EF06F0025007E10A0E41
:100DC200015CD8B0E7EF06F0E9EF06F0F9EF06F0C4
:100DD2007DC001F07EC002F07FC003F080C004F04D
:100DE20023EC11F001C06BF002C06CF0FEEF06F0D4
:100DF200000E00016C6F090E6B6F00016851D8A4E0
:100E020005EF07F007EF07F02FEF07F061BF0EEFD6
:100E120007F00CEF07F02FEF07F0000E8225D96ED6
:100E2200010E8321DA6E2E0EDF6E824B832B710749
:100E3200D8A07207010E686F2FEF07F0000E82250F
:100E4200D96E010E8321DA6E300EDF6E824B832B58
:100E52007107D8A072076407D8A0650764516511AD
:100E6200D8A436EF07F038EF07F01FEF07F0000EB7
:100E72008225D96E010E8321DA6E6B51300FDF6E3F
:100E8200824B832B7107D8A0720779C028F07AC0F1
:100E920029F07BC02AF07CC02BF07DC013F07EC00D
:100EA20014F07FC015F080C016F088C00FF089C022
:100EB20010F08AC011F08BC012F066EC0AF00FC07D
:100EC2002CF010C02DF011C02EF012C02FF00DEC3E
:100ED20015F028C079F029C07AF02AC07BF02BC027
:100EE2007CF088C028F089C029F08AC02AF08BC023
:100EF2002BF0000E2C6E000E2D6E200E2E6E410E6B
:100F02002F6E79EC0CF028C088F029C089F02AC035
:100F12008AF02BC08BF000016007D8A06107774BE5
:100F2200782B6D51775D7851800A5B6E6E51800A25
:100F32005B58D8B09FEF07F0A1EF07F0AFEF07F0D3
:100F420083BFADEF07F0835109E14B0E825DD8A05C
:100F5200ADEF07F0AFEF07F0ADEF06F0000E786FE0
:100F62004F0E776F000E7725D96E010E7821DA6E5B
:100F7200DF6A000E5B6E010E5C6E82515B5E835116
:100F82005C5A77515B24016E78515C20026E000E30
:100F9200036E010E046E82C005F083C006F0E5EC1C
:100FA20014F000018251775D826F83517859836F0B
:100FB2008151D8A4DFEF07F0E2EF07F0010EE3EF73
:100FC20007F0000E776F786B8151D8B4EBEF07F022
:100FD200EDEF07F0F8EF07F08207D8A08307000EC5
:100FE2008225D96E010E8321DA6E81C0DFFF77512F
:100FF200715F7851725B55C00FF0000E8225106E42
:10100200010E8321116E71C012F072C013F015EC43
:1010120014F012000450800B0D6E045004240F6E65
:1010220003AE16EF08F018EF08F019EF08F00F8082
:101032000F50D8B41FEF08F021EF08F035EF08F099
:101042000F28D8A427EF08F029EF08F031EF08F0B5
:10105200000E016E000E026E000E036E000E046E94
:10106200038E046A3DEF08F0000E016E000E026E60
:10107200000E036E000E046E0850800B0E6E0D50B3
:101082000E18D8B447EF08F049EF08F04AEF08F01D
:101092000D8C085008240E6E07AE52EF08F054EF84
:1010A20008F055EF08F00E800E50D8B45BEF08F050
:1010B2005DEF08F071EF08F00E28D8A463EF08F096
:1010C20065EF08F06DEF08F0000E056E000E066E7B
:1010D200000E076E000E086E078E086A79EF08F0A0
:1010E200000E056E000E066E000E076E000E086EF4
:1010F2000F500E5CD8B080EF08F082EF08F0A9EF35
:1011020008F00DAC87EF08F089EF08F08BEF08F0DC
:10111200800E0D1A0FC010F00EC00FF010C00EF0AE
:1011220001C010F005C001F010C005F002C010F0BF
:1011320006C002F010C006F003C010F007C003F0B2
:1011420010C007F004C010F008C004F010C008F08E
:10115200106A0F500EC009F00A6A095E000E0A5AA0
:101162000ABEBDEF08F00A5009E11A0E095CD8A0C8
:10117200BDEF08F0BFEF08F0F6EF08F001500210E3
:1011820003100410D8A4C8EF08F0CBEF08F0010E4A
:10119200CCEF08F0000E106E000E016E000E026E13
:1011A200000E036E000E046E0EC00FF0FFEF08F08B
:1011B20010A0DEEF08F0E0EF08F0E6EF08F0D890BC
:1011C20010300109106EE8EF08F0D890103201A03B
:1011D200EDEF08F0EFEF08F0F0EF08F0108E0434B6
:1011E20004320332023201320F2A0E500F5CD8A0B1
:1011F200FDEF08F0FFEF08F0D9EF08F00DBC04EFA7
:1012020009F006EF09F046EF09F00F50D8A40CEFF1
:1012120009F00EEF09F018EF09F0000E016E000E52
:10122200026E000E036E000E046E65EF0AF00550AA
:10123200012606500222075003220850042204A06D
:1012420025EF09F027EF09F0D3EF09F010A02CEFFA
:1012520009F02EEF09F034EF09F0D89010300109AF
:10126200106E36EF09F0D890103201A03BEF09F072
:101272003DEF09F03EEF09F0108E043404320332E0
:10128200023201320F2AD3EF09F00550015C0650F9
:101292000258075003580450800A096E0850800A09
:1012A2000958D8B057EF09F059EF09F084EF09F067
:1012B2000150055C096E025006580A6E0350075829
:1012C2000B6E045008580C6EFF0E0924016EFF0EBF
:1012D2000A20026EFF0E0B20036EFF0E0C20046E1E
:1012E200800E0D1A106C1050D8A47AEF09F07CEF22
:1012F20009F08CEF09F0010E0126000E02220322F2
:1013020004228CEF09F00550015E0650025A075084
:10131200035A0850045A0150021003100410D8A4B2
:1013220095EF09F097EF09F0CCEF09F01050D8A42F
:101332009DEF09F09FEF09F0CCEF09F0000E016E6E
:10134200000E026E000E036E000E046E65EF0AF0D0
:10135200D890013602360336043610AEB3EF09F0E8
:10136200B5EF09F0B6EF09F0018010A0BBEF09F06C
:10137200BDEF09F0C1EF09F0D8801036C3EF09F0D4
:10138200D89010360F50D8B4C9EF09F0CBEF09F05E
:10139200CCEF09F00F0603AED1EF09F0D3EF09F05D
:1013A200A9EF09F00E6A10AED9EF09F0DBEF09F0F0
:1013B200F3EF09F010C009F07F0E0916D8B4E4EF7C
:1013C20009F0E6EF09F0EAEF09F0010E0E6EF3EF15
:1013D20009F001A0EFEF09F0F1EF09F0F3EF09F0E6
:1013E200E6EF09F00E50D8B4F9EF09F0FBEF09F07F
:1013F20026EF0AF0010E0126000E02220322042229
:1014020004A006EF0AF008EF0AF026EF0AF001C086
:1014120009F002C00AF003C00BF004C00CF00C3457
:101422000C320B320A32093209C001F00AC002F052
:101432000BC003F00CC004F00F28D8B423EF0AF05D
:1014420025EF0AF026EF0AF00F2A0F28D8B42CEF66
:101452000AF02EEF0AF036EF0AF00F50D8A434EF5C
:101462000AF036EF0AF047EF0AF0000E016E000EA6
:10147200026E000E036E000E046E0F50D8A444EFED
:101482000AF046EF0AF047EF0AF00D6A0FA04CEFA0
:101492000AF04EEF0AF051EF0AF0038E52EF0AF013
:1014A200039ED8900F30046E0DAE5AEF0AF05CEF37
:1014B2000AF05DEF0AF0048E01C001F002C002F0F2
:1014C20003C003F004C004F012001250800B1B6E24
:1014D20012501224216E11AE71EF0AF073EF0AF06E
:1014E20074EF0AF021802150D8B47AEF0AF07CEF31
:1014F2000AF08FEF0AF02128D8A482EF0AF084EFD5
:101502000AF08CEF0AF0000E0F6E000E106E000E45
:10151200116E000E126E118E97EF0AF0000E0F6E12
:10152200000E106E000E116E000E126E1650800B21
:101532001B1A16501624206E15AEA2EF0AF0A4EF65
:101542000AF0A5EF0AF020802050D8B4ABEF0AF0E1
:10155200ADEF0AF0C0EF0AF02028D8A4B3EF0AF0EA
:10156200B5EF0AF0BDEF0AF0000E136E000E146E16
:10157200000E156E000E166E158EC8EF0AF0000EE4
:10158200136E000E146E000E156E000E166E2050B5
:10159200D8B4CEEF0AF0D0EF0AF0D8EF0AF021501B
:1015A200D8A4D6EF0AF0D8EF0AF0E2EF0AF0000E64
:1015B2000F6E000E106E000E116E000E126E78EF9E
:1015C2000CF015500F02F3CF26F0F4CF27F026507F
:1015D2001C6E1D6A1E6A1F6A2750226E236A246AC5
:1015E200256A14501002F3CF26F0F4CF27F02650CC
:1015F2001C26000E1D221E221F2227502226000E0C
:1016020023222422252213501102F3CF26F0F4CFF5
:1016120027F026501C26000E1D221E221F222750B4
:101622002226000E2322242225221EC01FF01DC0C6
:101632001EF01CC01DF01C6A13501002F3CF26F0DE
:10164200F4CF27F026501C2627501D22000E1E2202
:10165200000E1F2214500F02F3CF26F0F4CF27F012
:1016620026501C2627501D22000E1E22000E1F226D
:101672001EC01FF01DC01EF01CC01DF01C6A1350BE
:101682000F02F3CF26F0F4CF27F026501C26275066
:101692001D22000E1E22000E1F2215501002F3CF33
:1016A20026F0F4CF27F02650222627502322000EC0
:1016B2002422000E252214501102F3CF26F0F4CF7B
:1016C20027F02650222627502322000E2422000E25
:1016D200252215501102F3CF26F0F4CF27F0265021
:1016E200176E2750186E196A1A6A19C01AF018C0B4
:1016F20019F017C018F0176A175022261850232223
:10170200195024221A5025221CC017F01DC018F0AF
:101712001EC019F01FC01AF0190E95EF0BF0D890E9
:101722001A32193218321732E82E90EF0BF0175096
:10173200222618502322195024221A5025221EC074
:101742001FF01DC01EF01CC01DF01C6A205021C0DD
:1017520017F0186A1726000E1822820E1724266E1A
:10176200FF0E1820276ECBEF0BF0D89022362336CF
:10177200243625361FAEC0EF0BF0C2EF0BF0C3EFDD
:101782000BF02280D8901C361D361E361F362606D8
:10179200D8A0270624AED0EF0BF0D2EF0BF0B6EFB5
:1017A2000BF0206A1FAED8EF0BF0DAEF0BF0FEEF72
:1017B2000BF0FF0E1C14176EFF0E1D14186EFF0E99
:1017C2001E14196E7F0E1F141A6E1750181019105E
:1017D2001A10D8B4EFEF0BF0F1EF0BF0F5EF0BF0BE
:1017E200010E206EFEEF0BF022A0FAEF0BF0FCEFE1
:1017F2000BF0FEEF0BF0F1EF0BF02050D8B404EF3A
:101802000CF006EF0CF02AEF0CF0010E2226000E6F
:1018120023222422252225A011EF0CF013EF0CF035
:101822002AEF0CF022C017F023C018F024C019F0E0
:1018320025C01AF01A341A3219321832173217C068
:1018420022F018C023F019C024F01AC025F0264A4D
:10185200272A27BE35EF0CF0275008E12628D8A00A
:1018620035EF0CF037EF0CF041EF0CF0000E226E6A
:10187200000E236E800E246E7F0E256E6EEF0CF02E
:1018820027BE4EEF0CF0275006E12604D8B04CEFED
:101892000CF04EEF0CF059EF0CF0000E226E000E21
:1018A200236E000E246E000E256E1B6A6EEF0CF086
:1018B20026C021F0FF0E2216FF0E23167F0E2416DD
:1018C200000E251621A068EF0CF06AEF0CF06BEF0A
:1018D2000CF0248ED8902130256E1B50251222C088
:1018E2000FF023C010F024C011F025C012F0120036
:1018F2002B50800B386E2B502B243F6E2AAE84EF78
:101902000CF086EF0CF087EF0CF03F803F50D8B41C
:101912008DEF0CF08FEF0CF0A3EF0CF03F28D8A462
:1019220095EF0CF097EF0CF09FEF0CF0000E286E85
:10193200000E296E000E2A6E000E2B6E2A8E2B6A66
:10194200ABEF0CF0000E286E000E296E000E2A6E10
:10195200000E2B6E2F50800B381A2F502F24406E02
:101962002EAEB6EF0CF0B8EF0CF0B9EF0CF04080F1
:101972004050D8B4BFEF0CF0C1EF0CF0D5EF0CF033
:101982004028D8A4C7EF0CF0C9EF0CF0D1EF0CF04F
:10199200000E2C6E000E2D6E000E2E6E000E2F6E9F
:1019A2002E8E2F6ADDEF0CF0000E2C6E000E2D6EC7
:1019B200000E2E6E000E2F6E2C502D102E102F109A
:1019C200D8A4E6EF0CF0E8EF0CF000EF0DF0000EFB
:1019D200286E000E296E000E2A6E000E2B6E800EEF
:1019E2002A127F0E2B1238502B1228C028F029C041
:1019F20029F02AC02AF02BC02BF040EF0EF03F5006
:101A0200D8A406EF0DF008EF0DF012EF0DF0000E66
:101A1200286E000E296E000E2A6E000E2B6E40EF0D
:101A22000EF040503FC030F0316A305E000E315A45
:101A32007F0E3024396E000E31203A6E28C034F009
:101A420029C035F02AC036F02BC037F0000E286EC0
:101A5200000E296E000E2A6E000E2B6E000E3B6EDB
:101A6200000E3C6E000E3D6E000E3E6E406A72EF3E
:101A72000DF04050D8B440EF0DF042EF0DF059EFA9
:101A82000DF0D8903436353636363736D89028367B
:101A920029362A362B363EAE51EF0DF053EF0DF0BC
:101AA20054EF0DF02880D8903B363C363D363E361A
:101AB2002C50345C2D5035582E5036582F503758F4
:101AC200D8A066EF0DF068EF0DF071EF0DF03E8CCF
:101AD2002C50345E2D50355A2E50365A2F50375ACC
:101AE200402A190E406478EF0DF07AEF0DF03AEFCC
:101AF2000DF03450351036103710D8B483EF0DF096
:101B020085EF0DF09DEF0DF03B809DEF0DF0D8902D
:101B1200283629362A362B363EAE92EF0DF094EF58
:101B22000DF095EF0DF02880D8903B363C363D36CF
:101B32003E363906D8A03A062AAEA2EF0DF0A4EF3F
:101B42000DF088EF0DF0406A3EAEAAEF0DF0ACEF5B
:101B52000DF0D0EF0DF0FF0E3B14306EFF0E3C1473
:101B6200316EFF0E3D14326E7F0E3E14336E3050D6
:101B7200311032103310D8B4C1EF0DF0C3EF0DF0B5
:101B8200C7EF0DF0010E406ED0EF0DF028A0CCEFA4
:101B92000DF0CEEF0DF0D0EF0DF0C3EF0DF0405091
:101BA200D8B4D6EF0DF0D8EF0DF0FCEF0DF0010E2A
:101BB2002826000E29222A222B222BA0E3EF0DF049
:101BC200E5EF0DF0FCEF0DF028C030F029C031F048
:101BD2002AC032F02BC033F0333433323232313256
:101BE200303230C028F031C029F032C02AF033C080
:101BF2002BF0394A3A2A3ABE07EF0EF03A5008E182
:101C02003928D8A007EF0EF009EF0EF014EF0EF00E
:101C1200000E3A6E3968000E286E000E296E000E14
:101C22002A6E000E2B6E3ABE21EF0EF03A5006E1FC
:101C32003904D8B01FEF0EF021EF0EF02EEF0EF0A8
:101C4200000E3A6E000E396E000E286E000E296EDE
:101C5200000E2A6E000E2B6E386A39C03FF03FA08C
:101C620035EF0EF037EF0EF03AEF0EF02A8E3BEF23
:101C72000EF02A9ED8903F302B6EF4EF0CF012003B
:101C8200D3C051F0D4C052F0D5C053F0D6C054F0F6
:101C920041C051F042C052F043C053F044C054F02E
:101CA200810E456EFF0E466E51C047F052C048F09D
:101CB20053C049F054C04AF0180E65EF0EF0D890A8
:101CC2004A32493248324732E82E60EF0EF047502E
:101CD20045244F6E000E4620506E50BE7AEF0EF035
:101CE200505009E1170E4F5CD8A07AEF0EF07CEF4E
:101CF2000EF086EF0EF041C041F042C042F043C008
:101D020043F044C044F049EF0FF050BE8BEF0EF0A9
:101D12008DEF0EF0FDEF0EF04FC045F0FF0E466E58
:101D2200FF0E476E7F0E486E000E496E45669CEFB1
:101D32000EF0A4EF0EF049344932483247324632AF
:101D4200452E97EF0EF046C04BF047C04CF048C00E
:101D52004DF049C04EF04B505114456E4C50521448
:101D6200466E4D505314476E4E505414486E4550B3
:101D7200461047104810D8A4C1EF0EF0C3EF0EF082
:101D8200C5EF0EF07CEF0EF051C045F052C046F0A8
:101D920053C047F054C048F0200ED5EF0EF0D89053
:101DA2004832473246324532E82ED0EF0EF04550E7
:101DB200461047104810D8B4E1EF0EF0E3EF0EF0F2
:101DC200EBEF0EF04B5051264C5052224D50532205
:101DD2004E5054224B1C456E4C1C466E4D1C476E99
:101DE2004E1C486E455051164650521647505316D7
:101DF2004850541641EF0FF051C045F052C046F022
:101E020053C047F054C048F0200E0DEF0FF0D890A9
:101E12004832473246324532E82E08EF0FF045503D
:101E2200461047104810D8A419EF0FF01BEF0FF01F
:101E320025EF0FF0000E516E000E526E000E536E23
:101E4200000E546E41EF0FF0D8905134456E52346B
:101E5200466E5334476E5434486E45504610471010
:101E62004810D8B437EF0FF039EF0FF041EF0FF011
:101E7200000E516E000E526E800E536EBF0E546EE7
:101E820051C041F052C042F053C043F054C044F03C
:101E920012005E50D96EDA6ADFCFF6FF060EF76ED9
:101EA2000800F550250AD8A459EF0FF05BEF0FF0A8
:101EB20037EF10F05E50D96EDA6ADF2A000E0001A9
:101EC200DC6F000EDB6FDBC0DFF0DD69DE695EC058
:101ED20001F05FC002F0C3EC13F001C0DBF002C0FE
:101EE200DCF00001DCBF7AEF0FF078EF0FF07FEF4C
:101EF2000FF0DF81DB6DDC1FD8B0DC2B5E50D96EBA
:101F0200DA6ADFCFF6FF060EF76E0800F5502E0AEA
:101F1200D8A48EEF0FF090EF0FF09EEF0FF05E500F
:101F2200D96EDA6ADF2A5EC001F05FC002F0C3EC4C
:101F320013F001C0DDF002C0DEF05E50D96EDA6A45
:101F4200DF500001926F92C0F6FF060EF76E080096
:101F5200F5CF91F0B7EF0FF0922BC6EF0FF06C0EAA
:101F6200916FC6EF0FF0916BC6EF0FF091514C0AD3
:101F7200D8B4ADEF0FF02A0AD8B4B0EF0FF00A0AC6
:101F8200D8B4ADEF0FF0B4EF0FF092C0F6FF060E2B
:101F9200F76E0800F550660AD8A4D2EF0FF0D4EF1E
:101FA2000FF031EF10F0FEEF0FF05F50D96EDA6AEA
:101FB200DFCF8CF0040EDF268C51D96EDA6ADECFC9
:101FC2008DF0DECF8EF0DECF8FF0DECF90F009EF16
:101FD20010F05F50D96EDA6ADFCF8CF0040EDF2684
:101FE2008C51D96EDA6ADECF8DF0DECF8EF0DECF85
:101FF2008FF0DECF90F009EF10F091514C0AD8B477
:10200200EAEF0FF0200AD8B4D6EF0FF009EF10F084
:102012005E50D96EDA6A9229DF6E25EF10F05DC04C
:1020220055F08DC056F08EC057F08FC058F090C05A
:1020320059F092C0F6FF060EF76E0800F5CF5AF07F
:1020420019EC03F048EF10F092C0F6FF060EF76E9F
:102052000800F550660AD8B410EF10F031EF10F016
:102062005E50D96EDA6ADF2A48EF10F05E50D96E00
:10207200DA6ADFCFF6FF060EF76E0800F550016E42
:10208200026A5DC003F019EC13F031EF10F0120098
:10209200096E0950D8B450EF10F052EF10F074EFFF
:1020A20010F004BE59EF10F057EF10F074EF10F07B
:1020B20001C005F002C006F003C007F004C008F03A
:1020C200051E061E071E081E052A000E06220722EE
:1020D200082205C00BF006C00CF007C00DF008C0C6
:1020E2000EF07CEF10F001C00BF002C00CF003C048
:1020F2000DF004C00EF00150021003100410D8A419
:1021020085EF10F087EF10F091EF10F0000E016EE6
:10211200000E026E000E036E000E046E22EF11F02E
:10212200960E0A6E9BEF10F00A2AD8900E320D32EC
:102132000C320B32000E0B14056E000E0C14066EE0
:10214200000E0D14076EFE0E0E14086E05500610DA
:1021520007100810D8A4B0EF10F0B2EF10F095EF0E
:1021620010F0C0EF10F00A2A010E0B26000E0C220E
:102172000D220E22D8900E320D320C320B32000E8E
:102182000B14056E000E0C14066E000E0D14076E75
:10219200FF0E0E14086E0550061007100810D8A482
:1021A200D5EF10F0D7EF10F0B4EF10F0DFEF10F032
:1021B2000A06D8900B360C360D360E360DBEE4EFFD
:1021C20010F0E6EF10F0EEEF10F0020E0A60ECEF06
:1021D20010F0EEEF10F0D9EF10F00AB0F3EF10F0BC
:1021E200F5EF10F0F6EF10F00D9ED8900A320AC00B
:1021F20005F0066A076A086A05C008F0076A066AF7
:10220200056A05500B1206500C1207500D120850A9
:102212000E120950D8B410EF11F012EF11F01AEFAC
:1022220011F004BE19EF11F017EF11F01AEF11F0CF
:102232000E8E0BC001F00CC002F00DC003F00EC0F8
:1022420004F01200033404340A6E0A50D8A42CEFAE
:1022520011F02EEF11F038EF11F0000E016E000EAA
:10226200026E000E036E000E046EA5EF11F001C0A7
:1022720005F002C006F003C007F004C008F0200E0B
:1022820048EF11F0D8900832073206320532E82EB4
:1022920043EF11F00550096E038EFF0E0116FF0E7B
:1022A2000216FF0E0316000E0416960E0A5E0ABEF2
:1022B2005FEF11F05DEF11F075EF11F00A50800A37
:1022C200970FD8B067EF11F069EF11F06BEF11F0D3
:1022D2002EEF11F0D89004320332023201320A3E5C
:1022E2006BEF11F08DEF11F01F0E0A647BEF11F00E
:1022F2007DEF11F085EF11F02EEF11F0D89001363D
:102302000236033604360A060A50D8A48BEF11F0BF
:102312008DEF11F07FEF11F00950D8B493EF11F067
:1023220095EF11F09DEF11F0041E031E021E016CC9
:10233200000E02220322042201C001F002C002F0B8
:1023420003C003F004C004F01200000E2814306E23
:10235200000E2914316E800E2A14326E7F0E2B1459
:10236200336E3050311032103310D8A4BBEF11F05D
:10237200BDEF11F0C5EF11F0000E286E000E296EB0
:10238200000E2A6E000E2B6E000E2C14306E000E04
:102392002D14316E800E2E14326E7F0E2F14336E7A
:1023A2003050311032103310D8A4DAEF11F0DCEFD4
:1023B20011F0E4EF11F0000E2C6E000E2D6E000EE7
:1023C2002E6E000E2F6E2BAEE9EF11F0EBEF11F037
:1023D200F4EF11F0286C291ED8B0292A2A1ED8B091
:1023E2002A2A800E2B562FAEF9EF11F0FBEF11F0D7
:1023F20004EF12F02C6C2D1ED8B02D2A2E1ED8B050
:102402002E2A800E2F56000E281A000E291A000EB0
:102412002A1A800E2B1A000E2C1A000E2D1A000EEC
:102422002E1A800E2F1A2C50285C2D5029582E500F
:102432002A582F502B58D8B021EF12F023EF12F068
:1024420026EF12F0D89027EF12F0D8801200D7C0F2
:102452000BF0D8C00CF0D9C00DF0DAC00EF001C0FC
:102462000BF002C00CF003C00DF004C00EF00BC064
:1024720005F00CC006F00DC007F00EC008F0180EF3
:1024820048EF12F0D8900832073206320532E82EB1
:1024920043EF12F00550096E0A6A09500A10D8A4D7
:1024A20055EF12F057EF12F077EF12F0D8900B348D
:1024B200056E0C34066E0D34076E0E34086E055030
:1024C200061007100810D8A469EF12F06BEF12F093
:1024D20071EF12F0000E026E020E016EA6EF12F004
:1024E200000E026E030E016EA6EF12F009280A100A
:1024F200D8A47EEF12F080EF12F0A2EF12F00BC020
:1025020005F00CC006F00DC007F00EC008F0090E71
:10251200D8900536063607360836E82E89EF12F0CF
:102522000550061007100810D8B49AEF12F09DEF6C
:1025320012F0010E9EEF12F0000E016E026AA6EF7B
:1025420012F0000E026E040E016E1200700ED36EB7
:10255200D6EC15F0F0EC15F0000EBAEC14F001C058
:10256200E4F002C0E5F0000E136E000E146EA00E31
:10257200156E400E166EE4C001F0E5C002F0000ECA
:1025820002BEFF0E036E046E010E49EC10F001C094
:102592000FF002C010F003C011F004C012F066EC9C
:1025A2000AF00FC028F010C029F011C02AF012C0A2
:1025B2002BF0000E2C6EC00E2D6E7F0E2E6E440E72
:1025C2002F6E79EC0CF028C0E0F029C0E1F02AC0AF
:1025D200E2F02BC0E3F0AB0E0001976F1B0E986F79
:1025E200E0C099F0E1C09AF0E2C09BF0E3C09CF039
:1025F2008DEC15F0010E026E0250D8A4060E036E89
:1026020060EC14F0AB0E026E036A60EC14F0520E32
:102612000001AA6F2B0EA96F000EE82EFED7A92F7C
:10262200FCD7AA2FFAD70000ADEF12F0FEEF3FF071
:102632000350D8B41FEF13F021EF13F029EF13F07A
:102642000350D8A427EF13F029EF13F02EEF13F065
:102652000150F9EC15F06DEF13F00350D96EDA6A00
:10266200090ED926DE50DE10D8B43AEF13F03CEF53
:1026720013F055EF13F00350D96EDA6A090ED9261A
:102682000350E16EE26A020EE126DE50E65CE6509D
:10269200800A086EDE50800A0858D8B053EF13F053
:1026A20055EF13F06DEF13F00350D96EDA6A020E94
:1026B200D926DF50046E0350D96EDA6ADF50042443
:1026C200D96EDA6A01C0DFFF0350D96EDA6A020EF0
:1026D200D926DE2A000EDD221200000E0114096E38
:1026E200000E02140A6E800E03140B6E7F0E041489
:1026F2000C6E09500A100B100C10D8A483EF13F0C3
:1027020085EF13F08DEF13F0000E016E000E026ED6
:10271200000E036E000E046E000E0514096E000E0C
:1027220006140A6E800E07140B6E7F0E08140C6ED0
:1027320009500A100B100C10D8A4A2EF13F0A4EF4A
:1027420013F0ACEF13F0000E056E000E066E000ED5
:10275200076E000E086E055001180FE106500218B0
:102762000CE10750031809E108500418D8B4BCEF73
:1027720013F0BEEF13F0C1EF13F0D890C2EF13F0D5
:10278200D8801200000E076E000E066E0150D96E40
:10279200DA6ADFCFF6FF060EF76E0800F5502A0A56
:1027A200D8A4D6EF13F0D8EF13F0FDEF13F00150D9
:1027B200D96EDA6ADF2A0250D96EDA6A020EDF2691
:1027C200DF5CD96EDA6ADECF06F0DECF07F010EFFB
:1027D20014F00A0E0602F3CF03F0F4CF04F007025E
:1027E200F350042605500324066E000E0420076EE3
:1027F2000150D96EDA6ADF2A0150D96EDA6ADFCF68
:10280200F6FF060EF76E0800F550D00F056E090EA2
:1028120005640EEF14F010EF14F0EAEF13F006C0A7
:1028220001F007C002F012000001DFA11BEF14F05B
:102832001DEF14F025EF14F010C009F011C00AF0DA
:102842000FC00BF050EC15F013BE2CEF14F02AEF72
:1028520014F030EF14F0000E136E000E126E000E24
:10286200166E000E156E40EF14F0000E026E200E72
:10287200016E0FC003F019EC13F0154A162A12501C
:10288200155C1650800A146E1350800A1458D8A092
:102892004DEF14F04FEF14F036EF14F00001DFB1FA
:1028A20055EF14F057EF14F05FEF14F010C009F079
:1028B20011C00AF00FC00BF050EC15F0120076EFC9
:1028C20014F002C0F6FF03C0F7FFF86A050EF764C2
:1028D20003D00800F55005D0F6CFE1FFF7CFE2FFB5
:1028E200E750E5EC15F0024A032A02C0F6FF03C0E6
:1028F200F7FFF86A050EF76403D00800F55005D01B
:10290200F6CFE1FFF7CFE2FFE7500009D8A48CEF42
:1029120014F08EEF14F062EF14F0120004BE94EF84
:1029220014F096EF14F0A0EF14F001C001F002C011
:1029320002F003C003F004C004F0B9EF14F001C0C8
:1029420005F002C006F003C007F004C008F0051E3F
:10295200061E071E081E052A000E0622072208224E
:1029620005C001F006C002F007C003F008C004F081
:102972001200056E0D0E0564C1EF14F0C3EF14F0E2
:10298200C9EF14F0000E026E000E016EE4EF14F0B7
:10299200C30EC2160544E846FC0BC2121A0EE82EFC
:1029A200FED700D0C282C2B2D9EF14F0DBEF14F02E
:1029B200D4EF14F0C450046E036AC3500324016EB2
:1029C200000E0420026E120003C009F004C00AF0D7
:1029D20001C007F002C008F0FFEF14F009C0D9FFF0
:1029E2000AC0DAFFDF500B6E094A0A2A07C0D9FF74
:1029F20008C0DAFF0BC0DFFF074A082A0506D8A085
:102A02000606052806E10628D8A40AEF15F00CEF01
:102A120015F0EFEF14F01200000E2C1A000E2D1A12
:102A2200000E2E1A800E2F1A28C001F029C002F0C3
:102A32002AC003F02BC004F02CC005F02DC006F014
:102A42002EC007F02FC008F00BEC08F001C028F0F0
:102A520002C029F003C02AF004C02BF0120094C077
:102A620096F03CEF15F093C05DF0960E5E6E95C049
:102A72005FF04AEC0FF096C0F6FF060EF76E080004
:102A8200F5500009D8A448EF15F04AEF15F034EFDD
:102A920015F0000E0001946F000E936F1200000EED
:102AA2000E6E000E0D6E5FEF15F00CC001F0026AA3
:102AB2000BC003F019EC13F00D4A0E2A0D50092435
:102AC200D96E0E500A20DA6EDF500C6E0C50D8A46C
:102AD2006DEF15F06FEF15F056EF15F0120001C013
:102AE20005F002C006F0032A0304046E04C0F6FFD8
:102AF200060EF76E05C0D9FF06C0DAFF054A062AA0
:102B02000800F5CFDFFFDF50D8A48AEF15F08CEF75
:102B120015F074EF15F01200990E00019D6F97C029
:102B22009EF0000EA16F000EA06F000EA86F000EA7
:102B3200A76F9E0E936F98C094F09D0E956F30EC28
:102B420015F000019751A025D96EDA6ADF6A1200EA
:102B52000150021003100410D8B4B2EF15F0B4EF14
:102B620015F0BCEF15F0000E011A000E021A000E4D
:102B7200031A800E041A01C001F002C002F003C061
:102B820003F004C004F0120001EE00F0500EEE6AF1
:102B9200E806FDE100EED3F00D0EEE6AE806FDE177
:102BA200000EF86E0001A7EF12F0949C948E190E9D
:102BB200AF6EAC94B896AB8EAC98AC8AAB889D8A5B
:102BC2009E9AF28CF28E1200016EACA2EBEF15F01F
:102BD200EDEF15F0E6EF15F001C0ADFF12009280A7
:102BE2000F013881C16ABE0EC06E010EC26E1200A4
:022BF2001200CF
:047FFC00C5EF15F0C8
:020000040020DA
:08000000FFFFFFFFFFFFFFFF00
:020000040030CA
:0E000000FF281F3CFFBF81FF0FC00FE00F4025
:00000001FF
