:04000000FEEF3FF0E0
:0B0600000020560D0A00563A200000B2
:10060C000450800B0D6E045004240F6E03AE11EFDA
:10061C0003F013EF03F014EF03F00F800F50D8B476
:10062C001AEF03F01CEF03F030EF03F00F28D8A4FF
:10063C0022EF03F024EF03F02CEF03F0000E016E19
:10064C00000E026E000E036E000E046E038E046A22
:10065C0038EF03F0000E016E000E026E000E036EFA
:10066C00000E046E0850800B0E6E0D500E18D8B490
:10067C0042EF03F044EF03F045EF03F00D8C08500C
:10068C0008240E6E07AE4DEF03F04FEF03F050EF62
:10069C0003F00E800E50D8B456EF03F058EF03F071
:1006AC006CEF03F00E28D8A45EEF03F060EF03F0BC
:1006BC0068EF03F0000E056E000E066E000E076E5E
:1006CC00000E086E078E086A74EF03F0000E056EBC
:1006DC00000E066E000E076E000E086E0F500E5CBC
:1006EC00D8B07BEF03F07DEF03F0A4EF03F00DAC7B
:1006FC0082EF03F084EF03F086EF03F0800E0D1A07
:10070C000FC010F00EC00FF010C00EF001C010F0B2
:10071C0005C001F010C005F002C010F006C002F0D8
:10072C0010C006F003C010F007C003F010C007F0B3
:10073C0004C010F008C004F010C008F0106A0F508C
:10074C000EC009F00A6A095E000E0A5A0ABEB8EF1A
:10075C0003F00A5009E11A0E095CD8A0B8EF03F0B7
:10076C00BAEF03F0F1EF03F0015002100310041084
:10077C00D8A4C3EF03F0C6EF03F0010EC7EF03F0EC
:10078C00000E106E000E016E000E026E000E036E57
:10079C00000E046E0EC00FF0FAEF03F010A0D9EFAC
:1007AC0003F0DBEF03F0E1EF03F0D8901030010918
:1007BC00106EE3EF03F0D890103201A0E8EF03F0D5
:1007CC00EAEF03F0EBEF03F0108E04340432033243
:1007DC00023201320F2A0E500F5CD8A0F8EF03F052
:1007EC00FAEF03F0D4EF03F00DBCFFEF03F001EFD1
:1007FC0004F041EF04F00F50D8A407EF04F009EF18
:10080C0004F013EF04F0000E016E000E026E000EE9
:10081C00036E000E046E60EF05F0055001260650C5
:10082C000222075003220850042204A020EF04F0F7
:10083C0022EF04F0CEEF04F010A027EF04F029EF24
:10084C0004F02FEF04F0D89010300109106E31EF46
:10085C0004F0D890103201A036EF04F038EF04F019
:10086C0039EF04F0108E04340432033202320132B8
:10087C000F2ACEEF04F00550015C065002580750C9
:10088C0003580450800A096E0850800A0958D8B0E1
:10089C0052EF04F054EF04F07FEF04F00150055CCC
:1008AC00096E025006580A6E035007580B6E04501E
:1008BC0008580C6EFF0E0924016EFF0E0A20026E02
:1008CC00FF0E0B20036EFF0E0C20046E800E0D1A13
:1008DC00106C1050D8A475EF04F077EF04F087EF8C
:1008EC0004F0010E0126000E02220322042287EFDF
:1008FC0004F00550015E0650025A0750035A085086
:10090C00045A0150021003100410D8A490EF04F004
:10091C0092EF04F0C7EF04F01050D8A498EF04F055
:10092C009AEF04F0C7EF04F0000E016E000E026E99
:10093C00000E036E000E046E60EF05F0D8900136C9
:10094C0002360336043610AEAEEF04F0B0EF04F00E
:10095C00B1EF04F0018010A0B6EF04F0B8EF04F092
:10096C00BCEF04F0D8801036BEEF04F0D8901036EF
:10097C000F50D8B4C4EF04F0C6EF04F0C7EF04F086
:10098C000F0603AECCEF04F0CEEF04F0A4EF04F0AE
:10099C000E6A10AED4EF04F0D6EF04F0EEEF04F0D4
:1009AC0010C009F07F0E0916D8B4DFEF04F0E1EFA8
:1009BC0004F0E5EF04F0010E0E6EEEEF04F001A072
:1009CC00EAEF04F0ECEF04F0EEEF04F0E1EF04F0EA
:1009DC000E50D8B4F4EF04F0F6EF04F021EF05F06C
:1009EC00010E0126000E02220322042204A001EFB4
:1009FC0005F003EF05F021EF05F001C009F002C08E
:100A0C000AF003C00BF004C00CF00C340C320B32A7
:100A1C000A32093209C001F00AC002F00BC003F01F
:100A2C000CC004F00F28D8B41EEF05F020EF05F031
:100A3C0021EF05F00F2A0F28D8B427EF05F029EF86
:100A4C0005F031EF05F00F50D8A42FEF05F031EF82
:100A5C0005F042EF05F0000E016E000E026E000E66
:100A6C00036E000E046E0F50D8A43FEF05F041EF5B
:100A7C0005F042EF05F00D6A0FA047EF05F049EFC6
:100A8C0005F04CEF05F0038E4DEF05F0039ED8906A
:100A9C000F30046E0DAE55EF05F057EF05F058EF23
:100AAC0005F0048E01C001F002C002F003C003F097
:100ABC0004C004F012001C50800B256E1C501C242A
:100ACC002B6E1BAE6CEF05F06EEF05F06FEF05F0C3
:100ADC002B802B50D8B475EF05F077EF05F08AEF2B
:100AEC0005F02B28D8A47DEF05F07FEF05F087EFFC
:100AFC0005F0000E196E000E1A6E000E1B6E000E25
:100B0C001C6E1B8E92EF05F0000E196E000E1A6E05
:100B1C00000E1B6E000E1C6E2050800B251A2050F0
:100B2C0020242A6E1FAE9DEF05F09FEF05F0A0EF7D
:100B3C0005F02A802A50D8B4A6EF05F0A8EF05F0EE
:100B4C00BBEF05F02A28D8A4AEEF05F0B0EF05F006
:100B5C00B8EF05F0000E1D6E000E1E6E000E1F6E1F
:100B6C00000E206E1F8EC3EF05F0000E1D6E000EE2
:100B7C001E6E000E1F6E000E206E2A50D8B4C9EFE8
:100B8C0005F0CBEF05F0D3EF05F02B50D8A4D1EF47
:100B9C0005F0D3EF05F0DDEF05F0000E196E000E39
:100BAC001A6E000E1B6E000E1C6E73EF07F01F50BA
:100BBC001902F3CF30F0F4CF31F03050266E276AA3
:100BCC00286A296A31502C6E2D6A2E6A2F6A1E50A3
:100BDC001A02F3CF30F0F4CF31F030502626000E4D
:100BEC0027222822292231502C26000E2D222E229B
:100BFC002F221D501B02F3CF30F0F4CF31F03050C8
:100C0C002626000E27222822292231502C26000EBF
:100C1C002D222E222F2228C029F027C028F026C0F2
:100C2C0027F0266A1D501A02F3CF30F0F4CF31F0C2
:100C3C003050262631502722000E2822000E292261
:100C4C001E501902F3CF30F0F4CF31F0305026267D
:100C5C0031502722000E2822000E292228C029F00C
:100C6C0027C028F026C027F0266A1D501902F3CFA2
:100C7C0030F0F4CF31F03050262631502722000EC0
:100C8C002822000E29221F501A02F3CF30F0F4CF85
:100C9C0031F030502C2631502D22000E2E22000E19
:100CAC002F221E501B02F3CF30F0F4CF31F0305016
:100CBC002C2631502D22000E2E22000E2F221F50DA
:100CCC001B02F3CF30F0F4CF31F03050216E3150A5
:100CDC00226E236A246A23C024F022C023F021C090
:100CEC0022F0216A21502C2622502D2223502E2214
:100CFC0024502F2226C021F027C022F028C023F038
:100D0C0029C024F0190E90EF06F0D890243223322B
:100D1C0022322132E82E8BEF06F021502C26225065
:100D2C002D2223502E2224502F2228C029F027C0F8
:100D3C0028F026C027F0266A2A502BC021F0226A00
:100D4C002126000E2222820E2124306EFF0E22203C
:100D5C00316EC6EF06F0D8902C362D362E362F3647
:100D6C0029AEBBEF06F0BDEF06F0BEEF06F02C800F
:100D7C00D89026362736283629363006D8A03106A4
:100D8C002EAECBEF06F0CDEF06F0B1EF06F02A6AEF
:100D9C0029AED3EF06F0D5EF06F0F9EF06F0FF0E13
:100DAC002614216EFF0E2714226EFF0E2814236EBC
:100DBC007F0E2914246E2150221023102410D8B435
:100DCC00EAEF06F0ECEF06F0F0EF06F0010E2A6EFB
:100DDC00F9EF06F02CA0F5EF06F0F7EF06F0F9EFBF
:100DEC0006F0ECEF06F02A50D8B4FFEF06F001EF56
:100DFC0007F025EF07F0010E2C26000E2D222E22D7
:100E0C002F222FA00CEF07F00EEF07F025EF07F0C5
:100E1C002CC021F02DC022F02EC023F02FC024F0C6
:100E2C002434243223322232213221C02CF022C02D
:100E3C002DF023C02EF024C02FF0304A312A31BEC1
:100E4C0030EF07F0315008E13028D8A030EF07F030
:100E5C0032EF07F03CEF07F0000E2C6E000E2D6EFB
:100E6C00800E2E6E7F0E2F6E69EF07F031BE49EFAC
:100E7C0007F0315006E13004D8B047EF07F049EFE6
:100E8C0007F054EF07F0000E2C6E000E2D6E000EC6
:100E9C002E6E000E2F6E256A69EF07F030C02BF016
:100EAC00FF0E2C16FF0E2D167F0E2E16000E2F1673
:100EBC002BA063EF07F065EF07F066EF07F02E8EBF
:100ECC00D8902B302F6E25502F122CC019F02DC01E
:100EDC001AF02EC01BF02FC01CF012003550800BE6
:100EEC00426E35503524496E34AE7FEF07F081EFFA
:100EFC0007F082EF07F049804950D8B488EF07F02B
:100F0C008AEF07F09EEF07F04928D8A490EF07F07E
:100F1C0092EF07F09AEF07F0000E326E000E336E70
:100F2C00000E346E000E356E348E356AA6EF07F067
:100F3C00000E326E000E336E000E346E000E356EE7
:100F4C003950800B421A395039244A6E38AEB1EF01
:100F5C0007F0B3EF07F0B4EF07F04A804A50D8B46B
:100F6C00BAEF07F0BCEF07F0D0EF07F04A28D8A48F
:100F7C00C2EF07F0C4EF07F0CCEF07F0000E366EAF
:100F8C00000E376E000E386E000E396E388E396AD0
:100F9C00D8EF07F0000E366E000E376E000E386E6E
:100FAC00000E396E3650371038103910D8A4E1EFD6
:100FBC0007F0E3EF07F0FBEF07F0000E326E000EC8
:100FCC00336E000E346E000E356E800E34127F0EB2
:100FDC0035124250351232C032F033C033F034C0C7
:100FEC0034F035C035F03BEF09F04950D8A401EF8F
:100FFC0008F003EF08F00DEF08F0000E326E000E53
:10100C00336E000E346E000E356E3BEF09F04A5015
:10101C0049C03AF03B6A3A5E000E3B5A7F0E3A24C6
:10102C00436E000E3B20446E32C03EF033C03FF0A6
:10103C0034C040F035C041F0000E326E000E336EFD
:10104C00000E346E000E356E000E456E000E466EB0
:10105C00000E476E000E486E4A6A6DEF08F04A505B
:10106C00D8B43BEF08F03DEF08F054EF08F0D890FF
:10107C003E363F3640364136D890323633363436EB
:10108C00353648AE4CEF08F04EEF08F04FEF08F055
:10109C003280D890453646364736483636503E5C18
:1010AC0037503F583850405839504158D8A061EF0C
:1010BC0008F063EF08F06CEF08F0488C36503E5E99
:1010CC0037503F5A3850405A3950415A4A2A190E13
:1010DC004A6473EF08F075EF08F035EF08F03E50F6
:1010EC003F1040104110D8B47EEF08F080EF08F0AC
:1010FC0098EF08F0458098EF08F0D89032363336E8
:10110C003436353648AE8DEF08F08FEF08F090EF9F
:10111C0008F03280D8904536463647364836430676
:10112C00D8A0440634AE9DEF08F09FEF08F083EF93
:10113C0008F04A6A48AEA5EF08F0A7EF08F0CBEF2D
:10114C0008F0FF0E45143A6EFF0E46143B6EFF0E70
:10115C0047143C6E7F0E48143D6E3A503B103C10C9
:10116C003D10D8B4BCEF08F0BEEF08F0C2EF08F0A9
:10117C00010E4A6ECBEF08F032A0C7EF08F0C9EFB2
:10118C0008F0CBEF08F0BEEF08F04A50D8B4D1EF1E
:10119C0008F0D3EF08F0F7EF08F0010E3226000E3E
:1011AC0033223422352235A0DEEF08F0E0EF08F0D0
:1011BC00F7EF08F032C03AF033C03BF034C03CF0EB
:1011CC0035C03DF03D343D323C323B323A323AC0D0
:1011DC0032F03BC033F03CC034F03DC035F0434AF4
:1011EC00442A44BE02EF09F0445008E14328D8A039
:1011FC0002EF09F004EF09F00FEF09F0000E446E56
:10120C004368000E326E000E336E000E346E000E0C
:10121C00356E44BE1CEF09F0445006E14304D8B0CF
:10122C001AEF09F01CEF09F029EF09F0000E446EDB
:10123C00000E436E000E326E000E336E000E346ED6
:10124C00000E356E426A43C049F049A030EF09F0F8
:10125C0032EF09F035EF09F0348E36EF09F0349E99
:10126C00D8904930356EEFEF07F01200096E095037
:10127C00D8B443EF09F045EF09F067EF09F004BE6D
:10128C004CEF09F04AEF09F067EF09F001C005F0E7
:10129C0002C006F003C007F004C008F0051E061ECD
:1012AC00071E081E052A000E06220722082205C06A
:1012BC000BF006C00CF007C00DF008C00EF06FEF7D
:1012CC0009F001C00BF002C00CF003C00DF004C01B
:1012DC000EF00150021003100410D8A478EF09F09E
:1012EC007AEF09F084EF09F0000E016E000E026E29
:1012FC00000E036E000E046E15EF0AF0960E0A6EC9
:10130C008EEF09F00A2AD8900E320D320C320B32C5
:10131C00000E0B14056E000E0C14066E000E0D1450
:10132C00076EFE0E0E14086E0550061007100810FE
:10133C00D8A4A3EF09F0A5EF09F088EF09F0B3EFFB
:10134C0009F00A2A010E0B26000E0C220D220E2289
:10135C00D8900E320D320C320B32000E0B14056E7F
:10136C00000E0C14066E000E0D14076EFF0E0E14FC
:10137C00086E0550061007100810D8A4C8EF09F025
:10138C00CAEF09F0A7EF09F0D2EF09F00A06D890DE
:10139C000B360C360D360E360DBED7EF09F0D9EFE5
:1013AC0009F0E1EF09F0020E0A60DFEF09F0E1EF5E
:1013BC0009F0CCEF09F00AB0E6EF09F0E8EF09F01C
:1013CC00E9EF09F00D9ED8900A320AC005F0066AC2
:1013DC00076A086A05C008F0076A066A056A0550BC
:1013EC000B1206500C1207500D1208500E12095019
:1013FC00D8B403EF0AF005EF0AF00DEF0AF004BEC3
:10140C000CEF0AF00AEF0AF00DEF0AF00E8E0BC08B
:10141C0001F00CC002F00DC003F00EC004F012007D
:10142C003CC032F03DC033F03EC034F03FC035F02C
:10143C00B6EC0AF032C043F033C044F0000E1D6E1F
:10144C00000E1E6EC80E1F6E420E206E43C001F0C1
:10145C0044C002F0000E02BEFF0E036E046E010EBD
:10146C003CEC09F001C015F002C016F003C017F0F7
:10147C0004C018F03CC011F03DC012F03EC013F097
:10148C003FC014F0C1EC0CF011C019F012C01AF0EE
:10149C0013C01BF014C01CF061EC05F019C032F045
:1014AC001AC033F01BC034F01CC035F0B6EC0AF097
:1014BC0032C041F033C042F04050D96EDA6A43C0BA
:1014CC0001F044C002F0000E046E0A0E036EAFEC85
:1014DC000BF00150300FDF6E4050D96EDA6A010EFE
:1014EC00D92643C001F044C002F0000E046E0A0E6F
:1014FC00036E10EC0CF00150300FDF6E4050D96EC3
:10150C00DA6A020ED9262E0EDF6E4050D96EDA6AD8
:10151C00030ED92641C001F042C002F0000E046E49
:10152C000A0E036EAFEC0BF00150300FDF6E405023
:10153C00D96EDA6A040ED92641C001F042C002F01D
:10154C00000E046E0A0E036E10EC0CF00150300FFE
:10155C00DF6E4050D96EDA6A050ED926DF6A1200AA
:10156C00343435343B6E3B50D8A4BFEF0AF0C1EF96
:10157C000AF0CBEF0AF0000E326E000E336E000E46
:10158C00346E000E356E38EF0BF032C036F033C0CF
:10159C0037F034C038F035C039F0200EDBEF0AF0EC
:1015AC00D8903932383237323632E82ED6EF0AF04C
:1015BC0036503A6E348EFF0E3216FF0E3316FF0E77
:1015CC003416000E3516960E3B5E3BBEF2EF0AF05B
:1015DC00F0EF0AF008EF0BF03B50800A970FD8B0F1
:1015EC00FAEF0AF0FCEF0AF0FEEF0AF0C1EF0AF096
:1015FC00D89035323432333232323B3EFEEF0AF081
:10160C0020EF0BF01F0E3B640EEF0BF010EF0BF006
:10161C0018EF0BF0C1EF0AF0D8903236333634366F
:10162C0035363B063B50D8A41EEF0BF020EF0BF0E9
:10163C0012EF0BF03A50D8B426EF0BF028EF0BF06A
:10164C0030EF0BF0351E341E331E326C000E33227D
:10165C003422352232C032F033C033F034C034F08F
:10166C0035C035F01200700ED36EE4EC0CF009ECC2
:10167C000DF0000E96EC0CF001C051F002C052F0CF
:10168C00000E1D6E000E1E6EA00E1F6E400E206E04
:10169C0051C001F052C002F0000E02BEFF0E036EEC
:1016AC00046E010E3CEC09F001C019F002C01AF0F6
:1016BC0003C01BF004C01CF061EC05F019C032F043
:1016CC001AC033F01BC034F01CC035F0000E366E5F
:1016DC00C00E376E7F0E386E440E396E74EC07F008
:1016EC0032C04DF033C04EF034C04FF035C050F026
:1016FC004DC03CF04EC03DF04FC03EF050C03FF0EE
:10170C00600E406E16EC0AF0060E026E0250D8A463
:10171C00060E036E67EC0CF0600E026E036A67EC4B
:10172C000CF0010E026E0250D8A4060E036E67EC8C
:10173C000CF0520E4C6E2B0E4B6E000EE82EFED79C
:10174C004B2EFCD74C2EFAD700D03FEF0BF0FEEF10
:10175C003FF0066A04BEB7EF0BF0B5EF0BF0BDEF30
:10176C000BF0036C041ED8B0042A010E066E02BEE8
:10177C00C4EF0BF0C2EF0BF0CAEF0BF0016C021EC2
:10178C00D8B0022A010E061A000E086E000E076E63
:10179C0003500410D8B4D5EF0BF0D7EF0BF0FFEFDC
:1017AC000BF0010E056EDFEF0BF0D890033604360C
:1017BC00052A04AEE4EF0BF0E6EF0BF0DBEF0BF0D9
:1017CC00D890073608360350015C04500258D8A054
:1017DC00F2EF0BF0F4EF0BF0F9EF0BF00350015EAE
:1017EC000450025A0780D89004320332052EE6EFDB
:1017FC000BF00650D8B405EF0CF007EF0CF00BEF24
:10180C000CF0076C081ED8B0082A07C001F008C0FD
:10181C0002F01200066A02BE18EF0CF016EF0CF084
:10182C001EEF0CF0016C021ED8B0022A010E066EDF
:10183C0004BE25EF0CF023EF0CF029EF0CF0036C39
:10184C00041ED8B0042A03500410D8B430EF0CF0A6
:10185C0032EF0CF056EF0CF0010E056E3AEF0CF077
:10186C00D89003360436052A04AE3FEF0CF041EF56
:10187C000CF036EF0CF00350015C04500258D8A069
:10188C004AEF0CF04CEF0CF050EF0CF00350015EF3
:10189C000450025AD89004320332052E41EF0CF05A
:1018AC000650D8B45CEF0CF05EEF0CF062EF0CF06D
:1018BC00016C021ED8B0022A01C001F002C002F075
:1018CC0012007DEF0CF002C0F6FF03C0F7FFF86AC0
:1018DC00050EF76403D00800F55005D0F6CFD9FFFC
:1018EC00F7CFDAFFDF50FEEC0CF0024A032A02C0FD
:1018FC00F6FF03C0F7FFF86A050EF76403D0080083
:10190C00F55005D0F6CFD9FFF7CFDAFFDF5000093D
:10191C00D8A493EF0CF095EF0CF069EF0CF01200DB
:10192C00056E0D0E05649DEF0CF09FEF0CF0A5EF0E
:10193C000CF0000E026E000E016EC0EF0CF0C30E28
:10194C00C2160544E846FC0BC2121A0EE82EFED74E
:10195C0000D0C282C2B2B5EF0CF0B7EF0CF0B0EF12
:10196C000CF0C450046E036AC3500324016E000EC5
:10197C000420026E1200000E151A000E161A000E2C
:10198C00171A800E181A11C001F012C002F013C001
:10199C0003F014C004F015C005F016C006F017C013
:1019AC0007F018C008F006EC03F001C011F002C0FB
:1019BC0012F003C013F004C014F01200949C948E27
:1019CC00190EAF6EAC94B896AB8EAC98AC8AAB8853
:1019DC009D8A9E9AF28CF28E120000EE60F0280E18
:1019EC00EE6AE806FDE1000EF86E000139EF0BF02F
:1019FC00016EACA204EF0DF006EF0DF0FFEF0CF052
:101A0C0001C0ADFF120092800F013881C16ABE0E79
:081A1C00C06E010EC26E120043
:047FFC00F3EF0CF0A3
:020000040020DA
:08000000FFFFFFFFFFFFFFFF00
:020000040030CA
:0E000000FF281F3CFFBF81FF0FC00FE00F4025
:00000001FF
